:100000000C94380B0C94E5280C9412290C94600B7A
:100010000C94600B0C94600B0C94600B0C94600BB4
:100020000C94600B0C94600B0C94600B0C94600BA4
:100030000C94600B0C94600B0C94600B0C94600B94
:100040000C9497290C94600B0C941B260C94692635
:100050000C94600B0C94600B0C94600B0C94600B74
:100060000C9462100C94600BFFD0FFE0FFCFFF6494
:10007000FFD1FF32380C060201FF64FFD0FFFE0003
:10008000101000FE0A06A7089500FFFE0EFE0BFEEC
:100090001010201000FEAAAA0001800000018000BC
:1000A0004A51EA505A51C99E000180000001800067
:1000B0000001800055551010201000FEAAAA000172
:1000C0008000000180003993C252325F8A527193DE
:1000D00080000001800000018000555510102010A4
:1000E00000FEAAAA00018000000180003BA5C124F7
:1000F00031198924712580000001800000018000F1
:1001000055551010201000FEAAAA00018000000121
:1001100080007BA5C1247919C124792580000001C4
:1001200080000001800055551010201000FEAAAA82
:10013000000180000001800079BFC2487A49C248AE
:100140007989800000018000000180005555101061
:10015000201000FEAAAA00018000000180007A4D54
:10016000C2527B53C2D67A4F80000001800000014A
:10017000800055551010201000FEAAAA0001800032
:100180000001800031A5CA287A31CA2849A580001B
:10019000000180000001800055551010201000FE65
:1001A000AAAA000180000001800073D1CA1073D197
:1001B000CA1073DF800000018000000180005555E7
:1001C0001010201000FEAAAA00018000000180008B
:1001D00078E1C50078C1C42079C1800000018000A9
:1001E0000001800055551010201000FEAAAA000141
:1001F00080000001800045F1C4407C41C44044417E
:100200008000000180000001800055551010201072
:1002100000FEAAAA000180000001800041F1C10097
:1002200041F1C1007D0180000001800000018000DB
:1002300055551010201000FEAAAA000180000001F0
:10024000800045F1C4404441A840104180000001B5
:1002500080000001800055551010201000FEAAAA51
:1002600000018000000180007DF1C1007DF1C1002E
:1002700041018000000180000001800055551010F0
:10028000201000FEAAAA00018000000180003DE1CC
:10029000C11041E1C1203D1180000001800000013A
:1002A000800055551010201000FEAAAA0001800001
:1002B000000180003CE1C1103911851078E1800017
:1002C000000180000001800055551010201000FE34
:1002D000AAAA00018000000180003DF1C040384121
:1002E000844079F1800000018000000180005555B4
:1002F0001010201000FEAAAA00018000000180005A
:100300007239CA204A39CA2073B9800000018000BE
:100310000001800055551010201000FEAAAA00010F
:100320008000000180007189CA184A09CA08719DBD
:100330008000000180000001800055551010201041
:1003400000FEAAAA00018000000180007199CA0481
:100350004A09CA10719D80000001800000018000E0
:1003600055551010201000FEAAAA000180000001BF
:1003700080007199CA044A19CA0471998000000169
:1003800080000001800055551010201000FEAAAA20
:1003900000018000000180007185CA0C4A15CA1C4A
:1003A000718580000001800000018000555510100B
:1003B000201000FEAAAA00018000000180004993DD
:1003C000EA546A59DBD44A538000000180000001DE
:1003D000800055551010201000FEAAAA00018000D0
:1003E000000180003453C29A3117891271138000C2
:1003F000000180000001800055551010201000FE03
:10040000AAAA00018000000180007BB9C1247939CB
:10041000C124793980000001800000018000555519
:100420001010201000FEAAAA000180000001800028
:100430003325C4B447ADC4A434A5800000018000B6
:100440000001800055551010201000FEAAAA0001DE
:100450008000000180007D11C1B07D51C1107D116F
:100460008000000180000001800055551010201010
:1004700000FEAAAA00018000000180003A5DC2527D
:10048000325D8A52719D8000000180000001800071
:1004900055551010201000FEAAAA0001800000018E
:1004A000800079CFC2107991C0507B8F800000010D
:1004B00080000001800055551010201000FEAAAAEF
:1004C000000180000001800079C1C2007981C04034
:1004D000438180000001800000018000555510100C
:1004E000201000FEAAAA000180000001800039C18E
:1004F000C2005981C8403B8180000001800000019A
:10050000800055551010201000FEAAAA000180009E
:100510000001800071C1CA007181D0404B81800010
:10052000000180000001800055551010201000FED1
:10053000AAAA000180000001800049C1CA004981C7
:10054000C8403381800000018000000180005555C3
:1005500000000008000E010A0A0804008080808064
:1005600080808000808005040408020888888888CC
:10057000060A0A080100242424FC4848FC909090B4
:10058000070A0A080100107C9290701C12927C10DD
:10059000070A0A0801006294946810102C52528CC9
:1005A000070A0A0801003844444438728A848C726D
:1005B00001040408040880808080030C0C0803FFF9
:1005C000204040808080808080404020030C0C08C8
:1005D00002FF80404020202020202040408007074C
:1005E00007080101109254385492100707070801B8
:1005F00001101010FE1010100204040803FEC04089
:100600004080060101080104FC020202080300C048
:10061000C0060A0A080100040408101020204080C7
:1006200080060A0A0801003048848484848484484F
:1006300030050A0A0802002060A020202020202087
:10064000F8060A0A08010078848404182040808093
:10065000FC060A0A080100788484043804048484AF
:1006600078060A0A080100081828488888FC080843
:1006700008060A0A080100FC808080F8040404844B
:1006800078060A0A08010038408080F8848484844F
:1006900078060A0A080100FC040408080810101073
:1006A00010060A0A0801007884848478848484848B
:1006B00078060A0A080100788484847C040404080B
:1006C00070020707080301C0C0000000C0C0020993
:1006D000090803FFC0C0000000C0404080050909B0
:1006E0000802000810204080402010080605050878
:1006F0000102FC000000FC050909080100804020FF
:10070000100810204080060A0A080100788484043A
:10071000081010001010060A0A080100384494ACB2
:10072000A4A4A49C403C060A0A080100304848845E
:1007300084FC84848484060A0A080100F884848482
:10074000F884848484F8060A0A0801007884848086
:10075000808080848478060A0A080100F0888484F6
:100760008484848488F0060A0A080100FC80808062
:10077000F880808080FC060A0A080100FC808080E6
:10078000F88080808080060A0A08010078848480CE
:10079000809C84848C74060A0A0801008484848402
:1007A000FC8484848484050A0A080200F82020203E
:1007B0002020202020F8070A0A0801003E08080827
:1007C000080808888870060A0A080100848890A032
:1007D000C0C0A0908884060A0A080100808080803A
:1007E0008080808080FC060A0A0801008484CCCCCA
:1007F000B4B484848484060A0A08010084C4C4A4AE
:10080000A494948C8C84060A0A0801007884848459
:10081000848484848478060A0A080100F884848425
:10082000F88080808080070B0B0801FF7884848427
:10083000848484B4CC7806060A0A080100F884840B
:1008400084F89088888484060A0A080100788484E1
:1008500080601804848478070A0A080100FE1010DA
:1008600010101010101010060A0A08010084848469
:1008700084848484848478070A0A0801008282823E
:1008800044444428281010060A0A0801008484847D
:1008900084B4B4CCCC8484060A0A08010084844859
:1008A00048303048488484070A0A0801008282449C
:1008B00044281010101010060A0A080100FC040455
:1008C000081020408080FC030C0C0804FFE08080AE
:1008D0008080808080808080E0060A0A0801008095
:1008E000804020201010080404030C0C0801FFE0D5
:1008F00020202020202020202020E00603030801C3
:10090000093048840701010801FFFE0303030802C0
:100910000A8040200608080801007884047C84844A
:100920008C74060B0B080100808080B8C48484841A
:1009300084C4B80608080801007884808080808418
:1009400078060B0B080100040404748C84848484EE
:100950008C74060808080100788484FC8080847800
:10096000050B0B08010018202020F8202020202053
:1009700020060B0B0801FE04748888887040788478
:100980008478060B0B080100808080B8C4848484BE
:10099000848484050B0B08020020200060202020A6
:1009A000202020F8050D0D0801FE08080018080891
:1009B00008080808089060060A0A08010080808874
:1009C00090A0C0A0908884050A0A08020060202038
:1009D000202020202020F8070808080100EC92922F
:1009E0009292929292060808080100B8C484848406
:1009F00084848406080808010078848484848484BC
:100A000078060A0A0801FEB8C484848484C4B880C5
:100A100080060A0A0801FE748C848484848C740421
:100A200004060808080100B8C4848080808080061D
:100A300008080801007884806018048478050A0A90
:100A40000801002020F82020202020201806080877
:100A50000801008484848484848C74060808080156
:100A60000084848448484830300708080801008220
:100A70009292929292926C0608080801008484482F
:100A80003030488484060A0A0801FE848484848401
:100A90004C34040478060808080100FC04081020FF
:100AA0004080FC030C0C0803FF6080804040808085
:100AB0004040808060010E0E0804FE8080808080AF
:100AC000808080808080808080030C0C0802FFC0C2
:100AD00020204040202040402020C0070303080180
:100AE0000862928C1010201000FEAAAA000180005B
:100AF0000001800073D1CA104BD1CA1073DF80008F
:100B0000000180000001800055551010201000FEEB
:100B1000AAAA0001800000018000719DCA5273D30F
:100B2000C252425D800000018000000180005555E6
:100B30001010201000FEAAAA000180000001800011
:100B4000499DCA527A5DCA504991800000018000D7
:100B50000001800055551010201000FEAAAA0001C7
:100B60008000000180007393CA52739FCA127213EF
:100B700080000001800000018000555510102010F9
:100B800000FEAAAA00018000000180004B93EA52F7
:100B90005B9FCA524B9380000001800000018000DF
:100BA00055551010201000FEAAAA00018000000177
:100BB000800074B9A6A425A5A4A474B9800000017E
:100BC00080000001800055551010201000FEAAAAD8
:100BD00000018000000180004BD1EA105BD1CA10F7
:100BE0004BDF80000001800000018000555510108F
:100BF000201000FEAAAA000180000001800039CD6B
:100C0000C212319F8852739380000001800000015E
:100C1000800055551010201000FEAAAA0001800087
:100C20000001800079CDC212799FC0527B93800071
:100C3000000180000001800055551010201000FEBA
:100C4000AAAA00018000000180004B9DC9207919EB
:100C5000C904493980000001800000018000555519
:100C60001010201000FEAAAA0001800000018000E0
:100C70004BB9C9087909C9084931800000018000D1
:100C80000001800055551010201000FEAAAA000196
:100C900080000001800045CDC4904489A88410994B
:100CA00080000001800000018000555510102010C8
:100CB00000FEAAAA0001800000018000721DCA1275
:100CC0007213C21243DD8000000180000001800029
:100CD00055551010201000FEAAAA00018000000146
:100CE00080007213CA127213C21243CD8000000139
:100CF00080000001800055551010201000FEAAAAA7
:100D000000018000000180000E2189200E218A2030
:100D1000092180000001800000018000555510105D
:100D2000201000FEAAAA000180000001800039DD29
:100D3000C202318D8850739F800000018000000145
:100D4000800055551010201000FEAAAA0001800056
:100D50000001800039DDC202318D8842739D800020
:100D6000000180000001800055551010201000FE89
:100D7000AAAA000180000001800071CFCA104A0DAC
:100D8000CA0271DD8000000180000001800055551D
:100D90001010201000FEAAAA0001800000018000AF
:100DA0007245CA4C7245C244418F800000018000E8
:100DB0000001800055551010201000FEAAAA000165
:100DC000800000018000725DCA42724DC250419F96
:100DD0008000000180000001800055551010201097
:100DE00000FEAAAA00018000000180003B9DC120F6
:100DF00031198904713980000001800000018000F0
:100E000055551010201000FEAAAA00018000000114
:100E1000800039D3C212421FC21239D380000001B0
:100E200080000001800055551010201000FEAAAA75
:100E300000018000000180004511ED105551C5B042
:100E40004511800000018000000180005555101000
:100E5000201000FEAAAA00018000000180003B8D46
:100E6000C252339F8A127213800000018000000179
:100E7000800055551010201000FEAAAA0001800025
:100E8000000180007B8DC2527B9FC2127A138000CA
:100E9000000180000001800055551010201000FE58
:100EA000AAAA0001800000018000398FC250324D93
:100EB0008A42719D8000000180000001800055552C
:100EC0001010201000FEAAAA00018000000180007E
:100ED000339BC42225A394A2639B80000001800061
:100EE0000001800055551010201000FEAAAA000134
:100EF00080000001800039DDC20832098A0871DDF6
:100F00008000000180000001800055551010201065
:100F100000FEAAAA000180000001800039DDC2089D
:100F20004189C0483B9D8000000180000001800095
:100F300055551010201000FEAAAA000180000001E3
:100F400080000EF990200C2182201C2180000001DD
:100F500080000001800055551010201000FEAAAA44
:100F6000000180000001800031CFCA104991C850B3
:100F7000338F800000018000000180005555101063
:100F8000201000FEAAAA000180000001800072214A
:100F9000CB6072A1C22042218000000180000001CC
:100FA000800055551010201000FEAAAA00018000F4
:100FB00000018000338FCA507B91CA104A0F800015
:100FC0000001800000018000555500000008000E5F
:100FD000010A0A0804008080008080808080808070
:100FE000070A0A08010010107C929090927C101061
:100FF000070A0A0801001C202020F82020207CC2BB
:101000000608080801018448784848784884070A97
:101010000A08010082442810FE10FE101010010A78
:101020000A08040080808080000080808080060A9A
:101030000A08010078848078848478048478040223
:101040000208020C9090080A0A0800003C4299A588
:10105000A1A1A599423C05070708020570087888F8
:101060007800F806090908010024244848904848F7
:101070002424060404080100FC04040406010108F9
:101080000104FC080A0A0800003C42B9A5A5B9A958
:10109000A5423C06010108010BFC03040408020AF6
:1010A00040A0A040070909080101101010FE10100F
:1010B0001000FE050707080205708808708080F898
:1010C0000507070802057088087008887003030385
:1010D00008030A2040800508080802FE88888888DE
:1010E000D8A88080060C0C0801FF7CF4F4F4F4749A
:1010F00014141414141C020202080304C0C00302D6
:10110000020802FE20C00307070802052060A02095
:10111000202020050707080205708888887000F8DD
:101120000609090801009090484824484890900614
:101130000A0A08010044C4485050242C549C8406D8
:101140000A0A08010044C4485050283444889C06C8
:101150000A0A080100C4244830D0242C549C840678
:101160000A0A0801001010001010608484847806B8
:101170000E0E080100601800003048488484FC848A
:10118000848484060E0E0801001860000030484870
:101190008484FC84848484060E0E08010030480098
:1011A000003048488484FC84848484060E0E080140
:1011B00000649800003048488484FC848484840659
:1011C0000E0E080100484800003048488484FC8422
:1011D000848484060E0E08010030483000304848F0
:1011E0008484FC84848484070A0A0801003E5090A9
:1011F00090FE909090909E060C0C0801FE788484DE
:10120000808080808484781060060E0E0801006063
:10121000180000FC808080F880808080FC060E0E24
:1012200008010018600000FC808080F880808080C9
:10123000FC060E0E08010030480000FC808080F89B
:1012400080808080FC060E0E08010048480000FCEB
:10125000808080F880808080FC050E0E080200608F
:10126000180000F82020202020202020F8050E0E55
:1012700008020030C00000F820202020202020207C
:10128000F8050E0E08020060900000F820202020D3
:1012900020202020F8050E0E08020090900000F893
:1012A0002020202020202020F8070A0A08000078AB
:1012B000444242F24242424478060E0E0801006463
:1012C00098000084C4C4A4A494948C8C84060E0E4C
:1012D00008010060180000788484848484848484F5
:1012E00078060E0E0801001860000078848484845B
:1012F0008484848478060E0E08010030480000784B
:10130000848484848484848478060E0E08010064B6
:1013100098000078848484848484848478060E0E03
:10132000080100484800007884848484848484848C
:10133000780605050801028448304884060C0C082C
:1013400001FF0474888C9494A4A4C444B880060E4D
:101350000E080100601800008484848484848484DE
:101360008478060E0E0801001860000084848484CE
:10137000848484848478060E0E08010030480000BE
:1013800084848484848484848478060E0E08010016
:101390004848000084848484848484848478070E8C
:1013A0000E080100186000008282444428101010CA
:1013B0001010060B0B0801008080F088848488F0F0
:1013C000808080060A0A08010070888888F8848472
:1013D00084C4B8060C0C080100601800007884046E
:1013E0007C84848C74060C0C080100186000007862
:1013F00084047C84848C74060C0C08010030480042
:10140000007884047C84848C74060C0C08010064CD
:101410009800007884047C84848C74060C0C080189
:1014200000484800007884047C84848C74060D0D88
:1014300008010030483000007884047C84848C7477
:101440000708080801007C92127E9090927C060AA0
:101450000A0801FE78848080808084781060060C01
:101460000C08010060180000788484FC8080847877
:10147000060C0C08010018600000788484FC808051
:101480008478060C0C08010030480000788484FC45
:1014900080808478060C0C0801004848000078849D
:1014A00084FC80808478050C0C080200C0300000A9
:1014B00060202020202020F8050C0C08020030C0FD
:1014C000000060202020202020F8050C0C080200DD
:1014D0006090000060202020202020F8050C0C08DF
:1014E00002009090000060202020202020F8060CB0
:1014F0000C08010064182844047C84848484847863
:10150000060C0C08010064980000B8C4848484842C
:101510008484060C0C080100601800007884848420
:1015200084848478060C0C0801001860000078841C
:10153000848484848478060C0C0801003048000000
:101540007884848484848478060C0C080100649870
:1015500000007884848484848478060C0C0801005C
:1015600048480000788484848484847806070708C7
:101570000101300000FC000030060A0A0801FF04E7
:10158000788C9494A4A4C47880060C0C08010060A4
:101590001800008484848484848C74060C0C0801F4
:1015A00000186000008484848484848C74060C0C8D
:1015B000080100304800008484848484848C74068C
:1015C0000C0C080100484800008484848484848CC6
:1015D00074060E0E0801FE18600000848484848462
:1015E0004C34040478050C0C0802FE8080F08888D6
:1015F0008890A0C0808080060E0E0801FE4848003A
:101600000084848484844C34040478000000002422
:101610000027002A0000000000250028002B000001
:10162000000000230026002900040404040404042C
:101630000402020202020203030303030301020481
:101640000810204080010204081020010204081044
:101650002000000007000201000003040600000053
:10166000000000000000770B4B12C6241526D5277A
:1016700011241FBECFEFD8E0DEBFCDBF12E0A0E047
:10168000B1E0E0EEFBE502C005900D92AA35B1078E
:10169000D9F717E0AAE5B2E001C01D92AE32B1075A
:1016A000E1F716E1C0E7D6E104C02297FE010E94EF
:1016B000EA2DC636D107C9F70E9488290C94EE2D71
:1016C0000C940000FF920F931F938C01262FFC01B6
:1016D000F3AC04966F2D44AD0E948C17F80EF80100
:1016E000F3AE81E090E01F910F91FF900895AF92CB
:1016F000BF92CF92EF920F936091FC017091FD0128
:10170000409166025091670288E692E024E83CE04E
:101710000E94570F109286021092850285E8A82E2B
:1017200082E0B82E81E292E0F501929382935F010C
:10173000CF0166E072E046E029E008E0EE24EA949A
:10174000CC24CA940E94481A89E192E0F501918361
:1017500080830F91EF90CF90BF90AF9008950F933B
:101760001F9300916402109165020E94111D801761
:10177000910764F400916402109165020E94111DAA
:101780009C01201B310B245C3F4F09C00E94111D9E
:101790002091640230916502821B930B9C01C90168
:1017A0001F910F9108950F931F9300916002109164
:1017B00061020E94191D8017910764F40091600274
:1017C000109161020E94191D9C01201B310B245CA9
:1017D0003F4F09C00E94191D2091600230916102A3
:1017E000821B930B9C01C9011F910F9108950E94C8
:1017F000211D0797409718F022E030E002C021E059
:1018000030E0C901089588E692E00E945A0F88E608
:1018100092E00E945B0E8823D1F788E692E00E9456
:101820006A0E2FEF8C3F920771F12FEF8D3F9207D9
:1018300064F42FEF8A3F920781F12FEF8B3F9207DD
:101840003CF5895F9F4FA9F52DC02FEF8E3F920782
:1018500081F02FEF8E3F92078CF02FEF8F3F920792
:1018600019F0892B61F125C08EEF96E06DE071E0F3
:101870001DC08EEF96E064E271E018C08EEF96E036
:101880006FE371E013C08EEF96E06FE571E00EC07C
:101890008EEF96E06BE771E009C08EEF96E06DE8A1
:1018A00071E004C08EEF96E069EA71E00E949C2826
:1018B00008958EEF96E06DEB71E00E949C280895EC
:1018C0008091EA0161E00E94812B8091EC0160E04F
:1018D00070E00E94E22A8091EE016FEF70E00E94BA
:1018E000E22A08958091EA0160E00E94812B8091B4
:1018F000EC016FEF70E00E94E22A8091EE0160E05F
:1019000070E00E94E22A089588E692E00E948B0E21
:1019100008958EEF96E040E855E260E070E00E94A6
:10192000A4268091EA0161E00E94422B8091EE01A1
:1019300061E00E94422B8091EC0161E00E94422B09
:101940008091F00161E00E94422B8091F0016FEFE5
:1019500070E00E94E22A85EF95E20E94FA1C0E9444
:10196000551C029769F087E892E06FE770E00E94EB
:10197000E61687E892E060E046E12BEC31E00CC02F
:1019800087E892E06FE770E00E94E61687E892E051
:1019900060E046E127ED31E00E94641768EB7BE0F0
:1019A00080E090E00E94582A0895DF92EF92FF9223
:1019B0000F931F93CF93DF9335C08EEF96E00E9475
:1019C0005C27182F8EEF96E0612F0E945528143562
:1019D00049F5EE24FF248701C0E0D0E08EEF96E0C9
:1019E0000E945C27D82E80538A30B8F4C801B70112
:1019F0002AE030E040E050E00E94592D2D2D3327A1
:101A000027FD30952053304079010027F7FC0095E1
:101A1000102FE60EF71E081F191F2196CA30D10598
:101A2000E9F609C08EEF96E00E942B270B972CF663
:101A3000EE24FF248701B701C801DF91CF911F91E8
:101A40000F91FF90EF90DF900895AF92BF92CF92E9
:101A5000DF92EF92FF920F931F938091C002882331
:101A600039F481E08093C00287E892E00E94A918CF
:101A700087E892E00E94B91887E892E06FE770E08B
:101A80000E94E61687E892E060E044E10E94351586
:101A900083E892E061EE71E00E94992887E892E085
:101AA0000E94BF18882341F78EEF96E00E942B27F3
:101AB000892B79F00E94D50C7B018C016115710591
:101AC0008105910531F00E94CC25C801B7010E9423
:101AD0005A1C0E94030C88E692E00E946F0E6093ED
:101AE0005C0270935D0280935E0290935F0280912E
:101AF0005A020E94C02A00D000D0AA2797FDA095C4
:101B0000BA2F2DE230E040E050E0EDB7FEB7218380
:101B1000328343835483BC01CD0120E030E040E0B8
:101B200050E0FFEFEF2EF3E0FF2E012D112DEFE03F
:101B3000AE2EB12CC12CD12C0E943F298B010F90CD
:101B40000F900F900F906F30710541F40E94720C4E
:101B50008091F00160E00E94812B9EC00E94AF0B3B
:101B60002091FA013091FB01821793072CF08091AC
:101B7000F00160E00E94812B8091620290916302EB
:101B80000817190711F4FF2413C08091F00161E0D8
:101B90000E94812B0E94111D909365028093640224
:101BA00064E670E080E090E00E94582AFF24F394FD
:101BB0000E94F70B0197B1F4B801660F771F660F0B
:101BC000771F600F711F655B7F4F882777FD8095BA
:101BD000982F0E94A92C20E030E040E251E40E94BE
:101BE0003F2C0EC00E94F70B029791F46091F80110
:101BF0007091F901882777FD8095982F0E94A92C74
:101C00006093F2017093F3018093F4019093F501D6
:101C10000E94D30B2091FA013091FB0182179307A8
:101C200014F4FF2079F16091F6017091F701882793
:101C300077FD8095982F0E94A92C9B01AC016091A3
:101C4000F2017091F3018091F4019091F5010E94ED
:101C5000D62B9B01AC0160915C0270915D0280917A
:101C60005E0290915F020E943B2C88231CF40E942C
:101C7000600C02C00E94720C0E94191D90936102B8
:101C800080936002109363020093620264E670E046
:101C900080E090E00E94582A68E873E180E090E0DC
:101CA0000E94582A1F910F91FF90EF90DF90CF90E4
:101CB000BF90AF900895FC0182819381029711F447
:101CC00020E006C08281938120E0039709F021E0A3
:101CD000822F0895FC0124813581C9010895FC01FA
:101CE00082819381039749F464817581882777FD08
:101CF0008095982F0E94A92C0DC082819381029714
:101D000029F060E070E080EA90EC04C06789708D93
:101D1000818D928D0895CF93DF93EC010E94ED2980
:101D2000AB012D853E85421B530B7E876D8787E176
:101D30004137580764F08EEF9FEF9D838C8383E0DB
:101D400090E09B838A838F850E94D22880C02A815D
:101D50003B812115310529F02130310509F077C08B
:101D600018C0493151053CF48D859E85841B950B27
:101D70009E878D876CC04E5750404034510518F4F3
:101D800081E090E062C08F850E94D2288DEF9FEFA6
:101D900058C04A30510534F48F850E94D2288AEF0A
:101DA0009FEF4FC0CA01CD978E35910508F044C012
:101DB0004B3551056CF08C85FE01E80FF11D8681D5
:101DC0009B8502C0220F331F9A95E2F7822B8683F0
:101DD0008B85882369F587E08B878C858F5F8C875F
:101DE00081508430A1F58F850E94D2286E8170E0E9
:101DF00080E090E00E94A72C6B8B7C8B8D8B9E8B60
:101E0000688570E080E090E00E94A72C6F8B788F4F
:101E1000898F9A8F2E8188859A85820F981719F05D
:101E20008FEF9FEF0EC01D821C8282E090E00DC0FC
:101E30008B8581508B870BC08F850E94D2288CEFB9
:101E40009FEF9D838C8383E090E09B838A83DF9167
:101E5000CF910895FF920F931F938C01F62EFC01F2
:101E6000508B4787618B728B3183208380E090E0B9
:101E7000A0E0B0E0838B948BA58BB68B878B908F83
:101E8000A18FB28F862F61E00E94422B8F2D61E0DF
:101E90000E94812B83E090E0F8019383828389EF95
:101EA0009FEF958384831F910F91FF9008950E9467
:101EB0002A0F0895CF93DF93EC018A819B810397CA
:101EC00039F08A819B81029719F02BEF3FEF3DC0DB
:101ED0001B821A821E821F82188619861A8687E044
:101EE0008B871C8680E090E0A0E0B0E08B8B9C8B21
:101EF000AD8BBE8B8F8B988FA98FBA8F898961E04C
:101F00000E94422B898960E00E94812B62E170E08F
:101F100080E090E00E94582A898961E00E94812B2C
:101F200088E290E00E94132A898960E00E94422B97
:101F30000E94ED297E876D87688179818F8542E0D7
:101F400050E00E94AF2821E030E0C901DF91CF913D
:101F50000895382F413210F040E042C08091C10214
:101F60008823E1F791E09093C1022093C3028FEFA1
:101F700080932E031092E90241504093EA024F5F92
:101F80009093C2028091C202330F832B8093C202CE
:101F90008091C402813041F41092C4028091C20247
:101FA0008093BB0085EC01C085EE8093BC008091DE
:101FB000C1028130E1F38091E902841710F440916D
:101FC000E90220E030E00AC0FB01E20FF31FD90173
:101FD000A753BD4F8C9180832F5F3F4F2417A0F3F1
:101FE000842F08950F931F93582F122F413210F012
:101FF00081E04AC08091C1028823E1F782E08093AA
:10200000C1020093C3028FEF80932E031092E90266
:102010004093EA02A9ECB2E0FB0102C081918D93EA
:102020008E2F861B8417D0F31092C2028091C202B9
:10203000550F852B8093C2028091C402813041F4F8
:102040001092C4028091C2028093BB0085EC01C053
:1020500085EE8093BC00112321F08091C102823073
:10206000E1F380912E038F3F11F480E00DC0809149
:102070002E03803211F482E007C080912E0380335A
:1020800011F084E001C083E01F910F910895482F63
:10209000613210F081E008958091C102843011F026
:1020A00082E0089560930C03ABEEB2E0842F9C01B4
:1020B000F90102C081918D938E2F841B8617D0F376
:1020C00080E008951F920F920FB60F9211242F9364
:1020D0003F934F935F936F937F938F939F93AF93B0
:1020E000BF93EF93FF938091B90090E0887F907049
:1020F0008036910509F4F2C081369105CCF588321D
:10210000910509F47BC089329105B4F480319105C1
:1021100009F46FC0813191053CF4009709F447C17F
:10212000089709F04FC165C08831910509F466C070
:10213000809709F047C182C08034910509F4A4C09A
:102140008134910544F48033910509F482C0C89725
:1021500009F038C189C08035910509F489C08835F6
:10216000910509F496C08834910509F02BC1AEC0E1
:102170008839910509F413C189399105ECF4883740
:10218000910509F4ABC0893791054CF48836910567
:1021900009F4A4C08037910509F014C19FC08838A4
:1021A000910509F4FCC08039910509F49DC080387F
:1021B000910509F007C198C0803B910509F4C6C09C
:1021C000813B91054CF4803A910509F49FC0883A0F
:1021D000910509F0F7C0BAC0803C910509F4E3C04D
:1021E000883C910509F4DFC0883B910509F0EAC0FD
:1021F000C2C08091C2028093BB00CFC09091E9021F
:102200008091EA02981768F49091E902E92FF0E0D2
:10221000E753FD4F80818093BB009F5F9093E9025D
:10222000BCC08091C302882309F44BC085ED809324
:10223000BC008091BC0084FDFCCFC2C080E28093D2
:102240002E0385ED8093BC008091BC0084FDFCCF03
:10225000B7C080E380932E0385ED8093BC0080910E
:10226000BC0084FDFCCFACC088E380932E039BC0F0
:102270008091E9029091BB00E82FF0E0E753FD4F19
:1022800090838F5F8093E9029091E9028091EA0246
:1022900082C08091E9029091BB00E82FF0E0E75303
:1022A000FD4F90838F5F8093E9028091C302882362
:1022B00041F085ED8093BC008091BC0084FDFCCF93
:1022C0007FC081E08093C40284EA6EC085ED809374
:1022D000BC008091BC0084FDFCCF72C083E0809381
:1022E000C10210922D0359C080912D03803208F055
:1022F00056C080912D039091BB00E82FF0E0E35F82
:10230000FC4F90838F5F80932D0347C080912D03F6
:10231000803230F4E0912D03F0E0E35FFC4F108257
:1023200085ED8093BC008091BC0084FDFCCF1092B1
:10233000C10260912D03E091C702F091C8028DE0C7
:1023400093E070E0099510922D032DC084E08093F6
:10235000C10210920B0310920C03E091C502F091A0
:10236000C602099580910C03882329F481E08093AB
:102370000C031092EB0290910B03E92FF0E0E55172
:10238000FD4F80818093BB009F5F90930B039091E2
:102390000B0380910C03981710F485EC01C085E8BD
:1023A0008093BC000FC085EC8093BC0009C01092E4
:1023B0002E0385ED8093BC008091BC0084FDFCCF92
:1023C0001092C102FF91EF91BF91AF919F918F91B8
:1023D0007F916F915F914F913F912F910F900FBE21
:1023E0000F901F9018951092C10281E08093C30254
:1023F0001092C40282E161E00E94812B83E161E0DE
:102400000E94812BE9EBF0E080818E7F80838081C8
:102410008D7F808388E48093B80085E48093BC003E
:10242000089581E0809374036093510310927203C6
:102430001092730308952091500330E080914F0370
:10244000281B3109C901089540914F038091500321
:10245000481718F02FEF3FEF0AC0E42FF0E0E15DDE
:10246000FC4F8081282F30E04F5F40934F03C9011C
:102470000895E0914F0380915003E81718F0EFEFB3
:10248000FFEF06C0F0E0E15DFC4F8081E82FF0E057
:10249000CF0108950895109278031092770388EE83
:1024A00093E0A0E0B0E08093790390937A03A09347
:1024B0007B03B0937C0389E292E090937603809350
:1024C00075030895CF92DF92EF92FF920F931F93BF
:1024D000CF93DF937C016B018A0180917403882381
:1024E000A1F0C0E0D0E00DC0D701ED91FC91D60184
:1024F000AC0FBD1F0190F081E02DC7016C910995D3
:102500002196C017D10780F304C0CB01642F0E942D
:102510004710C801DF91CF911F910F91FF90EF906D
:10252000DF90CF900895DF93CF930F92CDB7DEB7B2
:10253000FC016983809174038823C9F0809173033F
:10254000803238F081E090E09383828320E030E0B5
:1025500015C080917203E82FF0E0EE5AFC4F99818C
:1025600090838F5F809372038093730305C0CE01C5
:10257000019661E00E94471021E030E0C9010F9010
:10258000CF91DF9108950F93062F8091510362E55B
:1025900073E04091730321E00E94F20F10927203E6
:1025A00010927303109274030F91089561E00E94DA
:1025B000C3120895413208F040E2862F6FE273E0C3
:1025C0000E94A90F10924F0380935003089521E0B9
:1025D0000E94DA12089510924F0310925003109245
:1025E0007203109273030E94F31108950F93FC017C
:1025F0004150040F4F5F94A986A9841718F009175A
:1026000028F402C0091798F0041788F46150260FC7
:102610006F5F93A985A9861718F0291718F005C0D0
:10262000291728F080E0261718F481E001C080E027
:102630000F910895FB010480F581E02D61E020E019
:1026400030E009950895FB010480F581E02D63E0F9
:1026500020E030E009950895FB010480F581E02D2C
:1026600064E040E020E030E009950895FB0104803B
:10267000F581E02D64E041E020E030E00995089527
:10268000FB010480F581E02D62E020E030E0099557
:102690000895FB010480F581E02D65E020E030E045
:1026A00009950895FB010480F581E02D66E0099508
:1026B0000895CF92DF92EF92FF920F931F93CF93E3
:1026C000DF937C01EB016A0100E0F6011491002325
:1026D00061F41F3F11F401E045C0C701BE01412F65
:1026E0000E9449138823F1F541C01F3F41F4C701FF
:1026F000BE014FEF0E944913882399F537C01E3F52
:1027000011F481E034C0103F60F5103E38F01F70C6
:10271000C701BE01412F0E94401323C0103D38F075
:102720001F70C701BE01412F0E9423131AC0103C25
:1027300080F0C701BE010E942C131295107F1E5F0E
:10274000812F90E00E943915C701BE010E94361307
:1027500004C01E3B30F417FD04C0812F90E00E949E
:10276000391500E00894C11CD11CAFCF80E0DF9187
:10277000CF911F910F91FF90EF90DF90CF90089530
:102780001F93CF93DF93EC01A39610E088818F3FD6
:1027900039F061E00E94422B888161E00E94812B28
:1027A0001F5F21961D3091F7DF91CF911F91089502
:1027B000FC01E60FF11D83A18F3F19F0642F0E94E9
:1027C000812B0895582F809181032091820370916D
:1027D000830360918403A0918503B0918603E09107
:1027E0008703F09188039FB790932D07F8944C913D
:1027F000482B3C91322398E057FF02C04C9301C014
:102800003C9380818623808391508081872B8083B5
:10281000992311F0550FF0CF80912D078FBF0895A8
:102820001F93162F882311F488EF03C0813019F409
:102830008AEF0E94E213812F807F0E94E213812F92
:102840008295807F0E94E2130E9443150E944315E7
:102850000E9443150E9443151F910895DF92EF9245
:10286000FF920F931F93CF93DF938C01F42EE22EF0
:10287000D32E643009F464C0653050F4623009F43A
:10288000E9C0633008F065C0613009F0E5C00AC0F6
:10289000663009F4A7C0663008F49DC0673009F0BF
:1028A000DBC0C7C00E94C013C80162E040E00E94C4
:1028B000D813C80164E041E00E94D813C80165E064
:1028C00040E00E94D813D80197962C91979798963C
:1028D000EC9198974E2F50E0FA01E75DF94EE491A4
:1028E000F0E0EE0FFF1FEB5EF94E8591949190930F
:1028F00086038093850330E0F901E75DF94EE491AA
:10290000F0E0EE0FFF1FEB5EF94E859194919093EE
:10291000880380938703435C594EFA018491809326
:102920008103235C394EF901949190938303909530
:102930009093840380958093820396961C928CC01A
:10294000DC0193968C918F3F09F486C0C80160E04A
:1029500004C0442329F462E040E00E94D8137CC004
:1029600062E041E00E94D813F80127A180A5482F1A
:1029700050E0FA01E75DF94EE491F0E0EE0FFF1F41
:10298000EB5EF94E85919491909386038093850335
:1029900030E0F901E75DF94EE491F0E0EE0FFF1F42
:1029A000EB5EF94E85919491909388038093870311
:1029B000435C594EFA01849180938103235C394E24
:1029C000F90124912093830320952093840380951B
:1029D0008093820341C0DC0196968C91642F0E9403
:1029E00010143AC0FC0186A1882341F488EF0E94AC
:1029F000E2138E2D9D2D9C01E90110C08130C9F795
:102A00008AEFF5CF8881807F0E94E21389918295B9
:102A1000807F0E94E213FA940E944315FF2091F7F1
:102A20000E9443150E9443150E9443150E944315BE
:102A300013C0822F932FFC01EF0109C0FE016491A6
:102A4000D80196968C910E9410142196FA94FF203A
:102A5000A9F702C0FC0146A381E0DF91CF911F914D
:102A60000F91FF90EF90DF900895FC0164874587F8
:102A700008952EE93FE004C0F9013197F1F701977D
:102A80000097D1F7089588E290E00197F1F7089553
:102A90008F929F92AF92BF92CF92DF92EF92FF926E
:102AA0000F931F93CF93DF937C01EB01C42E490159
:102AB0008AE0481729F0E5E14E1709F05AC00BC02B
:102AC000C70143E00E941A13C701BE0148E650E067
:102AD0000E9459134EC00A811B81C70140E00E9429
:102AE0004013C701BE0141E00E942313F801D280C8
:102AF0000681178190E7A92EB12CA00EB11EC70147
:102B0000BE0140E00E944013C701BE014EE30E9497
:102B10004913FFE1FD1550F04D2D4068C701BE017E
:102B20000E944913C701BE0140E80AC04D2D405222
:102B30004068C701BE010E944913C701BE0148E8B1
:102B40000E944913C701BE0141E00E944013C70122
:102B5000BE0140E198010E9452130A151B0521F0A5
:102B6000005F1F4FD394CBCFC701BE0140E00E944E
:102B70002313C701BE014C2D94010E94FE19DF9161
:102B8000CF911F910F91FF90EF90DF90CF90BF906A
:102B9000AF909F908F900895FC01E60FF11D8491F6
:102BA000382F20E03196E4912E0F311DC901089590
:102BB000FC01849108950E94D815882321F0823069
:102BC00011F083E0089586E0089566E00E94CC1538
:102BD000089568E00E94CC150895FC013A96E491AE
:102BE0008E2F0895FC013B96E4918E2F08959F92BD
:102BF000AF92BF92CF92DF92EF92FF920F931F930B
:102C0000CF93DF93EC01C62EFC80ED800F2D1E2D9F
:102C10008F2D9E2D0E94D815B82E8F2D9E2D0E948F
:102C2000DB15982E81E0B81619F48FE0A82E02C0AB
:102C3000AA24AA948F2D9E2D0E94F215D82E80E6EC
:102C40008C1558F48F2D9E2D0E94E915009729F0C0
:102C5000F801E80FF91F81E614C080E48C1558F4E0
:102C60008F2D9E2D0E94E515009729F0F801E80FA1
:102C7000F91F81E406C08F2D9E2D0E94ED15F801ED
:102C80007196DC1408F445C0D81608F442C0282F09
:102C9000492D50E094919F3F11F4319636C02C1588
:102CA00009F02BC0BB2019F082E0B81681F48491A2
:102CB0008B8B319684918C8B32968491888B319654
:102CC0008491898B3196849135978A8B29C0892F7D
:102CD0008F7082508A8B92959F70998B31968491D8
:102CE000982F9F709C8B82958F708B8B31968491DF
:102CF000329782958F70888B13C032968491329769
:102D00008A21E80FF11DE40FF51F2D1511F02F5F3B
:102D1000C1CF188A1B8A1C8A198A1A8AE0E0F0E05F
:102D2000CF01DF91CF911F910F91FF90EF90DF9036
:102D3000CF90BF90AF909F900895DC011496ED91D5
:102D4000FC911597309709F438C057968C91579796
:102D5000882339F43596849158968C9358973796F2
:102D60000AC0813011F43F9601C03D968491589677
:102D70008C9358973196849159968C93599758967D
:102D80008C915897282F332727FD309559968C9191
:102D90005997992787FD9095281B390B5A968C9146
:102DA0005A97803441F0289F9001112496E036957F
:102DB00027959A95E1F75B962C93089580E0089506
:102DC0002EED36E1FC01368B258B0895CF93DF93F2
:102DD000EC018C819D818617970749F07D836C8378
:102DE000CE010E949D168EED96E19E8B8D8BDF911C
:102DF000CF9108954F925F926F927F928F929F92A0
:102E0000AF92BF92CF92DF92EF92FF920F931F93F8
:102E1000CF93DF937C01062FB42E622F0E94F7150B
:102E2000EC01009711F480E03EC0F701C480D5802A
:102E3000138974888188800E82899B2C9718981A30
:102E4000C701682D492D212F072D0E94F6128823D6
:102E500041F1C6010E94DB1567E0A62EA10EA694E3
:102E6000A694A6946E01C80ED11CBB244A2C5524EE
:102E700011C0FE010491C701612F462D20E00E9480
:102E8000CF182196185F9E012C192A1590F3C40CB7
:102E9000D51CB3946B2C690CB71418F4E601182DEB
:102EA000F2CFF7018089DF91CF911F910F91FF90B1
:102EB000EF90DF90CF90BF90AF909F908F907F90DA
:102EC0006F905F904F900895DF92EF92FF920F9373
:102ED0001F93CF93DF938C01D62EE42EE901DC0102
:102EE0005596ED91FC9156970995E80EFF2408C080
:102EF000C8016D2D4E2D0E94FA16D80EF80E21969F
:102F000028812223A9F78F2DDF91CF911F910F9157
:102F1000FF90EF90DF900895DF92EF92FF920F9372
:102F20001F938C01E62EF42ED22EDC015596ED91E6
:102F3000FC9156970995F80EC8016E2D4F2D2D2D39
:102F40000E94FA161F910F91FF90EF90DF90089565
:102F5000EF92FF920F931F938C017B01DC01D196BE
:102F6000ED91FC91D29782E00995D701ED91FC910A
:102F7000C801B7014AE020E030E00995F82ED801F9
:102F8000D196ED91FC91D29783E00995D801D19625
:102F9000ED91FC91D29780E009958F2D1F910F91B3
:102FA000FF90EF900895EF92FF920F931F938C0183
:102FB0007B01DC01D196ED91FC91D29782E00995DD
:102FC000D801D196ED91FC91D29781E00995D70176
:102FD000ED91FC91C801B70144E120E030E0099592
:102FE00098012D5C3F4FD701ED91FC91C801B701CD
:102FF00047E10995D801D196ED91FC91D29780E0F7
:1030000009951F910F91FF90EF900895FF920F93F4
:103010001F93CF93DF93EC018B01E9A9FAA982E01A
:103020000995E9A9FAA981E00995D801ED91FC91EA
:10303000CE01B80145E120E030E00995F82E882363
:1030400051F09E012D5C3F4FD801ED91FC91CE01D6
:10305000B80147E10995E9A9FAA980E009958F2D02
:10306000DF91CF911F910F91FF900895EF920F93F1
:10307000CF93DF93FC01448F258F078FE68EEB0102
:10308000A881B9814BE37C969F01FD010995DF91F1
:10309000CF910F91EF900895DF93CF930F92CDB71B
:1030A000DEB7FB01A081B18146E49E012F5F3F4F57
:1030B000FD01099589810F90CF91DF910895DF93EC
:1030C000CF930F92CDB7DEB7FB01A081B18147E46A
:1030D0009E012F5F3F4FFD01099589810F90CF9190
:1030E000DF910895FB01A081B18148E420E030E048
:1030F000FD01099508950F931F938C01DC01129631
:103100006D917C9113970E944C18F8018083628125
:103110007381C8010E945F18D80111968C93119792
:1031200012966D917C911397C8010E947218F80154
:1031300083870280F381E02DA081B181C801BF01A6
:1031400047E10D5C1F4F9801FD0109951F910F91FB
:103150000895CF93DF93EC016A817B810E94A817C9
:10316000882321F0CE010E947B1881E0DF91CF916E
:103170000895FC01628173810E94D3170895CF9353
:10318000DF93EC01EE85FF85309709F009956A81A0
:103190007B81CE010E940618DF91CF910895EF92B6
:1031A0000F93FC01362F542FA22FE02E62817381E2
:1031B000432F252F0A2F0E9436180F91EF90089564
:1031C0001F93CF93DF93EC011D821C821F821E820E
:1031D000198681E0888782E28A871F861E86FE0123
:1031E000B39680E09FEF91938F5F8E30E1F711E00F
:1031F00018A3CE010E94E0161F8B188E198E80E452
:103200008A8F1B8E87E49AE19AAB89ABDF91CF91CD
:103210001F9108958F929F92AF92BF92CF92EF929B
:10322000FF920F931F935C014B01142FF22E0E940B
:10323000E018F5019382828217A3F0A605A3E4A209
:10324000C3A2C5010E94A9181F910F91FF90EF9092
:10325000CF90BF90AF909F908F900895FC01128205
:1032600080818150838314820895FC0120818281B2
:10327000820F82839181891710F080E00895848104
:103280008F5F84838381820F891710F0892F81508B
:10329000838381E00895FC01A681B78185819D012A
:1032A000280F311DC9011D92A817B907E1F708952C
:1032B000DC01FB01108212968C9112978183159686
:1032C0008C9115978150828313968C9183830895F6
:1032D000DC01FB0121818381813021F0833029F0E1
:1032E000322F05C0322F385F02C0322F285040E005
:1032F00013968C911397821708F041E050E01296D4
:103300008C91381708F051E090E0321708F491E002
:10331000892F8423942B9523892B0895FC01A68162
:10332000B78185818695869586959281491B489FB0
:10333000402D1124A40FB11D362F377080E890E086
:1033400002C0959587953A95E2F7669566956695DC
:10335000A60FB11D3C91222311F0382B02C080959D
:1033600038233C930895FC01DB0111964C91119791
:103370008281481760F08381841748F06C918581C1
:10338000681728F4CF0114962C910E948E19089585
:10339000CF92DF92FF920F931F93CF93DF936C0135
:1033A000EB01FA808B81813061F0813028F082302E
:1033B00059F0833019F40AC001E001C000E010E0C8
:1033C00007C000E011E004C00FEFF9CF00E01FEFED
:1033D000F7FE04C0C601BE010E94B3198881800FA8
:1033E00088838981810F8983FF0C91F7DF91CF91C9
:1033F0001F910F91FF90DF90CF9008950F931F932F
:10340000CF93DF93FB018901C281D3814233D1F095
:10341000433338F4453111F1473149F1443189F5ED
:1034200016C0463449F1473449F14B3351F5CE01CA
:10343000B9010E946819882321F1CE01B8010E94C8
:10344000C8191FC0CE01B9010E94B3191AC0CE011C
:103450000E944B19CE010E942E1913C0CE010E946A
:103460003519882379F0CE010E944B190AC0CE018C
:10347000B9010E94581905C08D8101C08981F801E8
:10348000808381E0DF91CF911F910F91089508957E
:10349000CF92EF920F93FC0113AE14AE15AE0496CB
:1034A0000E940A190F91EF90CF9008958F929F92EA
:1034B000AF92BF92CF92DF92EF92FF920F931F9342
:1034C000CF93DF937B018C01EA012CE330E040E0F5
:1034D00050E00E94AB2D6883C801B7012CE330E0B7
:1034E00040E050E00E94AB2D122F032FF42EE52E6A
:1034F000622F732F842F952F2CE330E040E050E0B3
:103500000E94AB2D6983612F702F8F2D9E2D2CE390
:1035100030E040E050E00E94AB2D122F032FF42E3C
:10352000E52E622F732F842F952F28E130E040E0A5
:1035300050E00E94AB2D6A83612F702F8F2D9E2D3E
:1035400028E130E040E050E00E94AB2D79018A0193
:10355000C801B7016C5F7F4F8F4F9F4F27E030E06E
:1035600040E050E00E94AB2D6F5F6B8320E0AA2407
:10357000BB24650101C02F5F822E9924F401EE5413
:10358000F84FCF0183709070892B99F4CF0164E6D6
:1035900070E00E94982D892B39F4CF0160E971E029
:1035A0000E94982D892B29F48EE691E0A0E0B0E0EE
:1035B00004C08DE691E0A0E0B0E0A80EB91ECA1EDE
:1035C000DB1EC501A0E0B0E0E816F9060A071B07FC
:1035D00090F62E83F401EE54F84F83E0882E912C60
:1035E0008E229F228114910499F4CF0164E670E049
:1035F0000E94982D892B39F4CF0160E971E00E9477
:10360000982D892B29F48EE691E0A0E0B0E004C06B
:103610008DE691E0A0E0B0E0A81AB90ACA0ADB0A78
:10362000980187010A191B092C093D09CF0164E69D
:1036300070E00E94982D7C01CF0160E971E00E944A
:10364000982DAC01E5E3F2E060E0613051F48114C3
:10365000910449F4E114F10441F44115510529F0B4
:1036600002C0808103C08CE101C08DE190E0A0E048
:10367000B0E0081719072A073B0740F0081B190B91
:103680002A0B3B0B6F5F31966C30F9F66F5F6D83E1
:10369000802F8F5F8C83DF91CF911F910F91FF90CF
:1036A000EF90DF90CF90BF90AF909F908F90089554
:1036B000EF92FF920F931F937B018C018091200466
:1036C00090912104A0912204B0912304E816F906F8
:1036D0000A071B0771F0C801B70145E154E00E94D9
:1036E000561AE0922004F0922104009322041093D1
:1036F00023041F910F91FF90EF9008954F925F92D6
:103700006F927F928F929F92AF92BF92CF92DF92F1
:10371000EF92FF920F931F93CF93DF934C01DC0145
:1037200016961C91612F70E080E090E020E833E372
:1037300041EE51E00E94592D5B016C0122EB37E014
:10374000E12FF0E0EE54F84F1DC0C9018370907076
:10375000892BB1F4C90164E670E00E94982D892B91
:1037600039F4C90160E971E00E94982D892B41F478
:1037700080E891E5A1E0B0E0A80EB91ECA1EDB1EEC
:103780002F5F3F4F2E173F0701F7D40115968C91FD
:10379000482E5524C90164E670E00E94982D7C01F2
:1037A000C90160E971E00E94982D8C01C1E0D0E070
:1037B00093E0692E712C6222732227C0C230D1059A
:1037C00091F46114710479F4E114F10419F4011510
:1037D000110549F480E89BE3A6E2B0E0A80EB91E0B
:1037E000CA1EDB1E11C0FE01EC5CFD4F608170E063
:1037F00080E090E020E831E541E050E00E94592D62
:10380000A60EB71EC81ED91E2196C415D505B4F242
:10381000D40112966C9170E080E090E020E13EE0EF
:1038200040E050E00E94592D7B018C01F401618140
:1038300070E080E090E02CE330E040E050E00E9457
:10384000592DE60EF71E081F191FD4018C91E80EA2
:10385000F11C011D111D14966C9170E061507040B7
:10386000882777FD8095982F20E831E541E050E0EA
:103870000E94592DE60EF71E081F191FEA0CFB1CAB
:103880000C1D1D1DB701C801DF91CF911F910F9134
:10389000FF90EF90DF90CF90BF90AF909F908F9070
:1038A0007F906F905F904F90089580911304909156
:1038B0001404089560930B0470930C0480930D041A
:1038C00090930E0420910C0230910D0240910E0253
:1038D00050910F02260F371F481F591F20930F04C6
:1038E00030931004409311045093120482E090E04E
:1038F00090931404809313040E94DF2960931C04A6
:1039000070931D0480931E0490931F040895EF92FA
:10391000FF920F931F931CC02F5F3F4F4F4F5F4F7E
:1039200020930B0430930C0440930D0450930E0429
:1039300088EE93E0A0E0B0E0E80EF91E0A1F1B1F1E
:10394000E0921C04F0921D0400931E0410931F04C7
:103950000E94DF29E0901C04F0901D0400911E04D9
:1039600010911F046E197F09800B910B20910B049D
:1039700030910C0440910D0450910E04685E734028
:103980008040904048F680910F0490911004A091DF
:103990001104B0911204281739074A075B07E8F0B1
:1039A000E0910904F0910A043097B9F00995611586
:1039B00071058105910519F00E945A1C0EC020E086
:1039C00030E08091130490911404892B11F021E0D0
:1039D00030E0309314042093130460910B04709131
:1039E0000C0480910D0490910E041F910F91FF9093
:1039F000EF90089590930A048093090480910B043A
:103A000090910C04A0910D04B0910E0480930F04CA
:103A100090931004A0931104B09312040E94871C89
:103A200008950E94871C0E94581B8091150490E005
:103A300008950E94871C0E94581B8091160490E0F4
:103A400008950E94871C0E94581B8091170490E0E3
:103A50000895FF920F931F93CF93DF938B010E94E2
:103A6000DF29EB01FF24FA94FEBC0DB407FEFDCF65
:103A70008EB58F3F11F481E008C00E94DF296C1BD6
:103A80007D0B6017710780F380E0DF91CF911F916C
:103A90000F91FF900895FC01848160E00E94812BCA
:103AA0000895FC01848161E00E94812B0895DC016E
:103AB0006EBD0DB407FEFDCF8EB520E030E0FA01FB
:103AC000E20FF31F80818EBD0DB407FEFDCF8EB5D2
:103AD0002F5F3F4F82E02030380789F78FEF8EBD90
:103AE0000DB407FEFDCF8EB58FEF8EBD0DB407FE72
:103AF000FDCF8EB58FEF8EBD0DB407FEFDCF8EB519
:103B00001A968C931A978F71853011F481E008957D
:103B100081E115968C931597CD010E94511D80E08F
:103B20000895FF920F931F93CF93DF93EC010E94B0
:103B3000DF298B01FF24FA9409C00E94DF29601B52
:103B4000710B6D52714010F08FE00DC0FEBC0DB4D2
:103B500007FEFDCF8EB58A878F3F79F38E3F11F434
:103B600081E006C08DE08D83CE010E94511D80E072
:103B7000DF91CF911F910F91FF900895CF93DF9325
:103B8000EC018E818823B1F02F8138854FEF05C07D
:103B90004EBD0DB407FEFDCF8EB52F5F3F4FC9015F
:103BA000019782509240A0F338872F83CE010E9464
:103BB000511D1E82DF91CF910895DF92EF92FF9207
:103BC0000F931F93CF93DF93EC01D62E79018A01D7
:103BD0000E94BE1DCE010E944B1DCE016CE271E021
:103BE0000E94291D8D2D80648EBD0DB407FEFDCF72
:103BF0008EB528E130E0D801C701022E04C0B69589
:103C0000A795979587950A94D2F78EBD0DB407FEB8
:103C1000FDCF8EB5285030408FEF283F380759F739
:103C2000DD2011F485E906C088E0D81611F487E894
:103C300001C08FEF8EBD0DB407FEFDCF8EB590E0B5
:103C40002FEF2EBD0DB407FEFDCF8EB587FF02C04E
:103C50009150B9F78A87DF91CF911F910F91FF9013
:103C6000EF90DF900895CF92DF92EF92FF920F9343
:103C70001F93CF93DF93EC017A018B01690141150A
:103C800051056105710511F482E137C08B858330E0
:103C900039F099E0EE0CFF1C001F111F9A95D1F727
:103CA000CE0168E1A80197010E94DD1D882311F073
:103CB00084E023C0CE016EEFA6010E94571D882329
:103CC000E9F0CE0168E572E00E94291D882311F415
:103CD00085E113C0CE016DE020E030E040E050E02F
:103CE0000E94DD1D882341F48FEF8EBD0DB407FEC9
:103CF000FDCF8EB5882379F084E18D83CE010E94BB
:103D0000511D80E0DF91CF911F910F91FF90EF90B7
:103D1000DF90CF900895CE010E94511D81E0F2CF37
:103D20008F929F92AF92BF92CF92DF92EF92FF92CB
:103D30000F931F93CF93DF93EC015A016B0149015D
:103D40000115110509F470C0C801820F931F81503D
:103D5000924008F064C08E81882371F08881998137
:103D6000AA81BB81481759076A077B0729F48F810D
:103D700098858816990610F5A882B982CA82DB82D6
:103D80008B85833039F059E0AA0CBB1CCC1CDD1CA0
:103D90005A95D1F7CE0161E1A60195010E94DD1D82
:103DA000882319F083E08D833AC0CE010E94911DD3
:103DB0008823A9F118861F8281E08E838F819885E0
:103DC0002FEF06C02EBD0DB407FEFDCF3EB5019608
:103DD00088159905B8F398878F8320E030E09FEF2E
:103DE0000BC09EBD0DB407FEFDCF8EB5F701E20FEF
:103DF000F31F80832F5F3F4F2017310790F32F81F0
:103E00003885200F311F38872F838985882319F043
:103E10002050324048F0CE010E94BE1D05C0CE01A8
:103E20000E94511D80E001C081E0DF91CF911F9180
:103E30000F91FF90EF90DF90CF90BF90AF909F9049
:103E40008F900895EF92FF920F931F93790120E0D6
:103E500030E000E012E00E94901E1F910F91FF9051
:103E6000EF9008956F927F928F929F92AF92BF9240
:103E7000CF92DF92EF92FF920F931F93CF93DF9336
:103E8000EC017A018B012D81222309F480C08B89FA
:103E90009C89AD89BE8984179507A607B70708F4E2
:103EA00076C085C0E114F1040105110549F41E82B4
:103EB0001F82188619861A861B861C861D8665C079
:103EC0002A853B854C855D85EB8DFC8D858590E055
:103ED0000996215030404040504039014A01082E97
:103EE00004C096948794779467940A94D2F72F5FCE
:103EF0003F4F4F4F5F4F0894E108F1080109110946
:103F00005701680104C0D694C794B794A7948A95C2
:103F1000D2F70894E11CF11C011D111DA614B70471
:103F2000C804D90428F0211531054105510549F48B
:103F30008F89988DA98DBA8D8E839F83A887B98725
:103F400016C0A618B708C808D90811C04E815F81ED
:103F5000688579858B8D9C8D94010E9444230894FB
:103F6000A108B108C108D108882331F410C086E047
:103F7000882E912C8C0E9D1EA114B104C104D10475
:103F800029F7EA86FB860C871D8781E001C080E067
:103F9000DF91CF911F910F91FF90EF90DF90CF9025
:103FA000BF90AF909F908F907F906F900895223038
:103FB00009F078CFE6CFCF93DF93EC01462F6E85E3
:103FC0007F85888999890E946D22882319F420E0D1
:103FD00030E00AC08A89282F30E095E0220F331F95
:103FE0009A95E1F72A5D3B4FC901DF91CF91089582
:103FF0000F931F93CF93DF938C01FC01858188235E
:10400000D9F1848187FF35C0C80161E00E94DB1FC0
:10401000EC01009789F1F8018581823040F48389B1
:104020009489A589B6898C8F9D8FAE8FBF8FF8013B
:104030008789908D9B8F8A8F8789908DA18DB28D76
:10404000CD01AA27BB279D8B8C8BE0912404F09196
:104050002504309751F0BE016A5E7F4FCE0148962D
:104060000995888D998D9B8B8A8BF80184818F7738
:1040700084830E94322201C080E0DF91CF911F91A2
:104080000F910895CF93DF93EC019C012A5F3F4F7E
:104090008B8D9C8D41E050E060E070E00E94B72382
:1040A0008823A1F08F89988DA98DBA8D0097A105DD
:1040B000B10559F48E819F81A885B9858F8B988F22
:1040C000A98FBA8F8C8180688C8381E0DF91CF913A
:1040D00008952F923F924F925F927F928F929F927C
:1040E000AF92BF92CF92DF92EF92FF920F931F9306
:1040F000DF93CF9300D000D000D0CDB7DEB76C01F6
:10410000162F072F5E834D83DC0115968C91159732
:10411000813009F070C114968C9181FF6CC18EC101
:10412000F601438954896589768982859385A485BA
:10413000B58584179507A607B70731F0C6010E9419
:10414000321F882309F457C1812F902F9C01290128
:104150002D803E8017C1D6015B96ED91FC915C9756
:10416000DA01C90119E0B695A795979587951A9533
:10417000D1F774807A9478227FEF872E71E0972EA2
:1041800082229322772009F04EC08114910409F015
:104190004AC0D60116964D915D916D917C9119970B
:1041A000411551056105710581F457968D919D91D9
:1041B0000D90BC91A02D0097A105B10549F1F60124
:1041C00086839783A087B1872EC0CF019E012F5F82
:1041D0003F4F0E944423882309F414C129813A8166
:1041E0004B815C81D6015B96ED91FC915C97878950
:1041F000803129F088EF9FEFAFEFBFE004C088EF78
:104200009FEFA0E0B0E0281739074A075B0730F0BE
:10421000C6010E944220882331F4EDC0F6012683B6
:1042200037834087518780E092E0881999095101CE
:104230008215930508F45C01D6015B96ED91FC9123
:104240005C971696ED90FD900D911C9119978EEF4D
:104250009FEFAFEFBFEFE80EF91E0A1F1B1F05848B
:1042600004C0EE0CFF1C001F111F0A94D2F78685B4
:104270009785A089B189E80EF91E0A1F1B1FE70C5C
:10428000F11C011D111D90E0A91692E0B90651F52F
:104290008091100290911102A0911202B09113022C
:1042A0008E159F05A007B10761F48FEF9FEFAFEF69
:1042B000BFEF8093100290931102A0931202B0936B
:1042C00013028091260690912706B801A70192015A
:1042D0000E94331E882309F48EC0A0E0B2E04A0E8B
:1042E0005B1E3EC08114910409F5F60122853385D9
:1042F0004485558583899489A589B6892817390706
:104300004A075B0798F00E943222882309F473C0A1
:10431000E0921002F0921102009312021093130225
:104320008091280681608093280608C0C801B701E3
:1043300041E00E946D22882309F45DC094012A5D4A
:104340003B4FA9014A0D5B1DD201F90102C08D91BD
:104350008193E417F507D9F7E21BF30B4E0E5F1EAE
:104360002A183B08950140E050E0F60182859385CC
:10437000A485B585820F931FA41FB51F82879387DD
:10438000A487B587D6011A962D913D914D915C91E8
:104390001D972114310409F0DECE53968D919D9125
:1043A0000D90BC91A02D82179307A407B50748F480
:1043B000F601238B348B458B568B848180688483F4
:1043C00011C08091240490912504892B59F08D818E
:1043D0009E81892B39F0D60114968C9114978068B0
:1043E00014968C93F601848183FF0EC0C6010E944F
:1043F000F81F882349F481E090E0D60113969C933E
:104400008E9312971E821D828D819E8126960FB6F5
:10441000F894DEBF0FBECDBFCF91DF911F910F91FA
:10442000FF90EF90DF90CF90BF90AF909F908F90D4
:104430007F905F904F903F902F90089582FD70CEB7
:1044400083CEDF93CF930F92CDB7DEB76983BE01E2
:104450006F5F7F4F41E050E00E9469200F90CF9145
:10446000DF91089580912806882399F140911002E8
:1044700050911102609112027091130280912606F0
:104480009091270626E234E00E94331E882319F11A
:104490004091290650912A0660912B0670912C06B6
:1044A000411551056105710591F0809126069091A5
:1044B000270626E234E00E94331E882361F0109222
:1044C000290610922A0610922B0610922C061092A2
:1044D000280681E0089580E00895DF92EF92FF9230
:1044E0000F931F937B018C01D42E80911002909129
:1044F0001102A0911202B09113028E159F05A00720
:10450000B107C1F00E9432228823D9F0809126069B
:1045100090912706B801A70126E234E00E94221FED
:10452000882379F0E0921002F092110200931202B7
:1045300010931302809128068D298093280681E02C
:1045400001C080E01F910F91FF90EF90DF900895E0
:104550004F925F926F927F928F929F92AF92BF9293
:10456000CF92DF92EF92FF920F931F93CF93DF933F
:10457000EC016A017B0128013901423051056105D6
:10458000710508F46FC089859A85AB85BC85019655
:10459000A11DB11D84179507A607B70708F462C0CF
:1045A0002B893C894D895E898F89803129F499272F
:1045B0008F2D7E2D6D2D09C0C701B60117E0969590
:1045C0008795779567951A95D1F74B015C01820E17
:1045D000931EA41EB51E8091100290911102A0910D
:1045E0001202B091130288169906AA06BB0639F08A
:1045F000C501B40140E00E946D22882399F18F89A2
:10460000803149F4F601F070EE0FFF1FEA5DFB4FB9
:10461000518240820DC0F601EF77F070EE0FFF1F60
:10462000EE0FFF1FEA5DFB4F408251826282738270
:10463000809128068160809328068A89823080F0E4
:104640008D819E81AF81B885880E991EAA1EBB1EE2
:104650008092290690922A06A0922B06B0922C06F0
:1046600081E001C080E0DF91CF911F910F91FF9019
:10467000EF90DF90CF90BF90AF909F908F907F9002
:104680006F905F904F900895CF92DF92EF92FF92DC
:104690000F931F93CF93DF93EC017A018B01690194
:1046A00089859A85AB85BC850196A11DB11D8417AE
:1046B0009507A607B70708F450C02B893C894D8998
:1046C0005E898F89803129F49927812F702F6F2D72
:1046D00009C0C801B701E7E096958795779567957A
:1046E000EA95D1F7260F371F481F591F80911002F6
:1046F00090911102A0911202B0911302281739076C
:104700004A075B0739F0CA01B90140E00E946D22F7
:10471000882319F18F89803159F4F701F070EE0F79
:10472000FF1FEA5DFB4F80819181A0E0B0E00EC0E9
:10473000F701EF77F070EE0FFF1FEE0FFF1FEA5D3E
:10474000FB4F80819181A281B381BF70F60180838C
:104750009183A283B38381E001C080E0DF91CF9198
:104760001F910F91FF90EF90DF90CF9008952F92BF
:104770003F924F925F926F927F928F929F92AF92F1
:10478000BF92CF92DF92EF92FF920F931F93DF932E
:10479000CF93CDB7DEB72F970FB6F894DEBF0FBE1D
:1047A000CDBF1C014A875B876C877D873F872E873B
:1047B000D9010D911D912D913C91011511052105F6
:1047C000310549F0480159010894811C911CA11C34
:1047D000B11C198610C0FC0180809180A280B3803A
:1047E00019868A859B85AC85BD850197A105B10594
:1047F00011F491E09987D10119968D919D910D90B9
:10480000BC91A02D0196A11DB11D8D839E83AF8308
:10481000B887750164014424552432018E010F5F6D
:104820001F4FF10181859285A385B48548165906ED
:104830006A067B0608F090C08D819E81AF81B885A5
:104840008C159D05AE05BF0550F482E0882E912C95
:10485000A12CB12CB2E0CB2ED12CE12CF12CC1013A
:10486000B701A60198010E944423882309F474C06B
:1048700089819A81AB81BC81A70196012F5F3F4F4F
:104880004F4F5F4F0097A105B10519F049015A013B
:104890000DC0281939094A095B098A859B85AC85B1
:1048A000BD85281739074A075B0759F00894411C52
:1048B000511C611C711C0894C11CD11CE11CF11C11
:1048C000B0CFC101A601B7010FEF1FEF2FEF3FE0FF
:1048D0000E94A822882399F43FC02601370108943A
:1048E0004108510861087108C101B301A201970193
:1048F00086010E94A822882379F1730162018C1439
:104900009D04AE04BF0448F3AE85BF854D915D9113
:104910006D917C91411551056105710539F0C10119
:10492000950184010E94A8228823B1F0EE85FF85BD
:1049300080829182A282B382F985FF2359F0089484
:10494000811C911CA11CB11CD1018D929D92AD9234
:10495000BC92139781E001C080E02F960FB6F894C7
:10496000DEBF0FBECDBFCF91DF911F910F91FF90A2
:10497000EF90DF90CF90BF90AF909F908F907F90FF
:104980006F905F904F903F902F9008951092320655
:1049900010923306109236061092380682E090E0AC
:1049A000A0E0B0E08093390690933A06A0933B06CE
:1049B000B0933C061092500610925A061092590677
:1049C00085E492E0909358068093570610925C0617
:1049D0000895482F6AE00E94782D282F30E084E067
:1049E000220F331F8A95E1F7842F0E94782D892F9B
:1049F000820F0895EF92FF920F931F937C0105E7BA
:104A000013E0C80168E670E00E941112C80160E07E
:104A10000E949312F70180810E94E924682FC80147
:104A20000E949312F70181810E94E924682FC80136
:104A30000E949312F70182810E94E924682FC80125
:104A40000E949312F70183810E94E924682FC80114
:104A50000E949312F70184810E94E924682FC80103
:104A60000E949312F70185810E94E924682FC801F2
:104A70000E949312F70186818E510E94E924682FCB
:104A8000C8010E949312C8010E94D6121F910F9173
:104A9000FF90EF900895DF92EF92FF920F931F9394
:104AA0007C0105E713E0C80168E670E00E9411127E
:104AB000C80160E00E949312C8010E94D612C8018A
:104AC00068E670E047E050E00E94E712C8010E94EB
:104AD0002412282F2F7722952F709AE0D92E2D9D02
:104AE000900111248F70820FF7018083C8010E940A
:104AF0002412282F22952F702D9D900111248F7044
:104B0000820FF7018183C8010E942412282F2F737E
:104B100022952F702D9D900111248F70820FF70127
:104B20008283C8010E942412282F22952F702D9D68
:104B3000900111248F70820FF7018383C8010E94B6
:104B40002412282F22952F702D9D900111248F70F3
:104B5000820FF7018483C8010E942412282F229516
:104B60002F702D9D900111248F70820FF701858386
:104B7000C8010E942412282F2F70225E82958F7008
:104B80008D9DC0011124280FF70126831F910F91DD
:104B9000FF90EF90DF9008950F931F93DF93CF93D3
:104BA000CDB7DEB727970FB6F894DEBF0FBECDBFE7
:104BB0008E010F5F1F4FA8010E94561A89818068DD
:104BC0008983C8010E94FA2489818F778983C8016B
:104BD0000E94FA2427960FB6F894DEBF0FBECDBF11
:104BE000CF91DF911F910F9108950F931F93DF9342
:104BF000CF93CDB7DEB727970FB6F894DEBF0FBEC1
:104C0000CDBF8E010F5F1F4FC8010E944B25C80109
:104C10000E947E1B27960FB6F894DEBF0FBECDBF55
:104C2000CF91DF911F910F91089585E793E00E9446
:104C3000EB12089508951F920F920FB60F92112450
:104C40002F933F934F938F939F93EF93FF93809175
:104C5000C00082FD1DC04091C6002091B606309173
:104C6000B7062F5F3F4F2F7330708091B806909139
:104C7000B9062817390771F0E091B606F091B7062A
:104C8000EA58F94F40833093B7062093B60602C026
:104C90008091C600FF91EF919F918F914F913F912D
:104CA0002F910F900FBE0F901F901895E0910A075B
:104CB000F0910B07E05CFF4F819191912081318150
:104CC000821B930B8F739070892B11F00E941A2610
:104CD00008951F920F920FB60F9211242F933F93B6
:104CE0008F939F93EF93FF932091FA063091FB06E9
:104CF0008091FC069091FD062817390731F48091C8
:104D0000C1008F7D8093C10014C0E091FC06F0913A
:104D1000FD06E654F94F20818091FC069091FD0636
:104D200001968F7390709093FD068093FC062093FC
:104D3000C600FF91EF919F918F913F912F910F901E
:104D40000FBE0F901F901895AF92BF92DF92EF9217
:104D5000FF920F931F93CF93DF93EC017A018B01A6
:104D6000DD24403081EE580780E0680780E0780756
:104D700011F0DD24D39491E0A92EB12CEC89FD89AA
:104D8000DD2069F0C50108A002C0880F991F0A94B0
:104D9000E2F7808360E079E08DE390E005C0108267
:104DA00060E874E88EE190E0A80197010E94AB2DC5
:104DB00021503040404050405695479537952795B3
:104DC00080E12030380720F0DD2011F0DD24D6CF3F
:104DD000E889F9893083EA89FB89208319A2EE8961
:104DE000FF89408121E030E0C9010C8C02C0880FAE
:104DF000991F0A94E2F7482B4083EE89FF8940818E
:104E0000C9010D8C02C0880F991F0A94E2F7482B44
:104E10004083EE89FF894081C9010E8C02C0880F52
:104E2000991F0A94E2F7482B4083EE89FF8980811D
:104E30000F8C02C0220F331F0A94E2F7209528231B
:104E40002083DF91CF911F910F91FF90EF90DF9022
:104E5000BF90AF900895DC011C96ED91FC911D97D9
:104E6000E05CFF4F2191319180819181281B390BAA
:104E70002F733070C9010895DC011C96ED91FC91EF
:104E80001D97E05CFF4F20813181E054F040DF014D
:104E9000AE5BBF4F8D919C9111972817390719F47C
:104EA0002FEF3FEF07C08D919C91E80FF91F808194
:104EB000282F30E0C9010895DC011C96ED91FC918A
:104EC0001D97E05CFF4F20813181E054F040DF010D
:104ED000AE5BBF4F8D919C9111972817390719F43C
:104EE0002FEF3FEF10C08D919C911197E80FF91FA4
:104EF00020818D919C91119701968F7390701196DE
:104F00009C938E9330E0C9010895DC0191968C91B9
:104F10009197882339F05496ED91FC9155978081B3
:104F200086FFF9CF91961C920895CF93DF93EC0101
:104F3000EE85FF85E05CFF4F20813181E054F04039
:104F40002F5F3F4F2F733070DF01AE5BBF4F8D91EE
:104F50009C91119728173907D1F3E05CFF4F8081AE
:104F60009181E054F040E80FF91F6083EE85FF85E2
:104F7000E05CFF4F31832083EE89FF89208181E04F
:104F800090E00F8C02C0880F991F0A94E2F7282B3B
:104F9000208381E089A3EC89FD89808180648083FE
:104FA00081E090E0DF91CF91089510920107109277
:104FB000000788EE93E0A0E0B0E0809302079093B2
:104FC0000307A0930407B09305078DE492E0909344
:104FD000FF068093FE0686E796E090930B0780938A
:104FE0000A078AEB96E090930D0780930C0785ECF7
:104FF00090E090930F0780930E0784EC90E09093DD
:1050000011078093100780EC90E090931307809332
:10501000120781EC90E0909315078093140782ECBF
:1050200090E0909317078093160786EC90E090939A
:1050300019078093180784E080931A0783E0809310
:105040001B0787E080931C0785E080931D0781E0A4
:1050500080931E070895CF92DF92EF92FF920F93F5
:105060001F93CF93DF937C016B018A01C0E0D0E0F6
:105070000FC0D6016D916D01D701ED91FC910190AA
:10508000F081E02DC7010995C80FD91F01501040CC
:105090000115110571F7CE01DF91CF911F910F918D
:1050A000FF90EF90DF90CF900895DC01ED91FC919F
:1050B0000190F081E02D09950895EF92FF920F93F2
:1050C0001F938C01DC01ED91FC910190F081E02DAA
:1050D0006DE009957C01D801ED91FC910190F08182
:1050E000E02DC8016AE009959C012E0D3F1DC90104
:1050F0001F910F91FF90EF900895CF93DF93EC01F4
:105100006115710519F420E030E00FC0DB010D904E
:105110000020E9F71197A61BB70BE881F9810280FF
:10512000F381E02DAD0109959C01C901DF91CF917B
:1051300008950E947D280895EF92FF920F931F9388
:105140007C010E947D288C01C7010E945D28080F08
:10515000191FC8011F910F91FF90EF9008958230A1
:1051600000F5E82FF0E0EE0FFF1FE05EF84F7183CF
:105170006083882319F08130A1F408C08091690010
:105180008C7F842B80936900E89A08958091690050
:10519000440F551F440F551F837F842B8093690054
:1051A000E99A0895823080F4882319F0813021F43F
:1051B00002C0E89801C0E998E82FF0E0EE0FFF1F69
:1051C000E05EF84F1182108208951F920F920FB681
:1051D0000F9211242F933F934F935F936F937F937D
:1051E0008F939F93AF93BF93EF93FF93809120078B
:1051F00090912107892B29F0E0912007F091210758
:105200000995FF91EF91BF91AF919F918F917F9100
:105210006F915F914F913F912F910F900FBE0F9023
:105220001F9018951F920F920FB60F9211242F9373
:105230003F934F935F936F937F938F939F93AF931E
:10524000BF93EF93FF938091220790912307892BBF
:1052500029F0E0912207F09123070995FF91EF9142
:10526000BF91AF919F918F917F916F915F914F917E
:105270003F912F910F900FBE0F901F9018952F9276
:105280003F924F925F926F927F928F929F92AF92D6
:10529000BF92CF92DF92EF92FF920F931F93DF9313
:1052A000CF93CDB7DEB73B014C0119012A016D89BF
:1052B0007E898F89988D6A197B098C099D09621AEC
:1052C000730A840A950AA40193010E94592DE218D9
:1052D000F30804091509A80197010E94CD2D2A0D94
:1052E0003B1D4C1D5D1DB901CA01CF91DF911F917E
:1052F0000F91FF90EF90DF90CF90BF90AF909F9075
:105300008F907F906F905F904F903F902F90089577
:10531000CF93DF930E941D2A0E94890CC6E5D6E236
:105320000E94250D2097E1F30E945626F9CF1F9287
:105330000F920FB60F9211242F933F938F939F9349
:10534000AF93BF938091280790912907A0912A07D6
:10535000B0912B0730912C070196A11DB11D232F71
:105360002D5F2D3720F02D570196A11DB11D2093E3
:105370002C078093280790932907A0932A07B093BE
:105380002B078091240790912507A0912607B091C3
:1053900027070196A11DB11D80932407909325072F
:1053A000A0932607B0932707BF91AF919F918F914C
:1053B0003F912F910F900FBE0F901F9018958FB7B0
:1053C000F894209128073091290740912A0750919D
:1053D0002B078FBFB901CA0108959FB7F894209198
:1053E000240730912507409126075091270786B55D
:1053F000A89B06C08F3F21F02F5F3F4F4F4F5F4F5D
:105400009FBF542F432F322F2227280F311D411DBC
:10541000511D82E0220F331F441F551F8A95D1F77B
:10542000B901CA010895019739F0880F991F880FB3
:10543000991F02970197F1F70895789484B58260D7
:1054400084BD84B5816084BD85B5826085BD85B528
:10545000816085BDEEE6F0E0808181608083E1E8D7
:10546000F0E010828081826080838081816080830F
:10547000E0E8F0E0808181608083E1EBF0E0808112
:1054800084608083E0EBF0E0808181608083EAE7E4
:10549000F0E080818460808380818260808380816D
:1054A000816080838081806880831092C10008952C
:1054B000EF92FF920F931F93CF93DF937B018C01A9
:1054C0003FB7F8948091240790912507A091260773
:1054D000B091270726B5A89B05C02F3F19F001966C
:1054E000A11DB11D3FBFBA2FA92F982F8827820F6A
:1054F000911DA11DB11D52E0880F991FAA1FBB1F4E
:105500005A95D1F7EC0130C00E94D52B3FB7F894E3
:105510008091240790912507A0912607B091270735
:1055200026B5A89B05C02F3F19F00196A11DB11DFE
:105530003FBFBA2FA92F982F8827820F911DA11D39
:10554000B11D32E0880F991FAA1FBB1F3A95D1F7F2
:105550008C1B9D0B885E9340B8F20894E108F1081B
:1055600001091109C851DC4FE114F10401051105CD
:1055700059F6DF91CF911F910F91FF90EF90089511
:10558000982F8E3008F09E5097708091140282956B
:10559000880F880F807C892B80937C0080917A0013
:1055A000806480937A0080917A0086FDFCCF209100
:1055B000780040917900942F80E030E0282B392B3F
:1055C000C90108951F93CF93DF93182FEB0161E07A
:1055D0000E94422B209709F44AC0CF3FD10509F41D
:1055E00049C0E12FF0E0EF5AF94E84918330C1F0C9
:1055F000843028F4813051F08230B1F50CC086300F
:1056000019F1873049F1843079F514C084B5806888
:1056100084BDC7BD33C084B5806284BDC8BD2EC003
:1056200080918000806880938000D0938900C0932F
:10563000880024C080918000806280938000D09395
:105640008B00C0938A001AC08091B000806880935C
:10565000B000C093B30012C08091B000806280930C
:10566000B000C093B4000AC0C038D1051CF4812F2B
:1056700060E002C0812F61E00E94812BDF91CF9119
:105680001F910895CF93DF93482F50E0CA01835CA8
:10569000994EFC013491475D594EFA01849188235B
:1056A00069F190E0880F991FFC01E55FF94EA59123
:1056B000B491FC01EB5EF94EC591D491662351F48F
:1056C0002FB7F8948C91932F909589238C93888190
:1056D00089230BC0623061F42FB7F8948C91932F1B
:1056E000909589238C938881832B88832FBF06C054
:1056F0009FB7F8948C91832B8C939FBFDF91CF91B0
:105700000895482F50E0CA018F5A994EFC01249108
:10571000CA01835C994EFC019491475D594EFA0190
:105720003491332309F440C0222351F1233071F026
:10573000243028F42130A1F0223011F514C0263095
:10574000B1F02730C1F02430D9F404C0809180003A
:105750008F7703C0809180008F7D8093800010C080
:1057600084B58F7702C084B58F7D84BD09C08091D8
:10577000B0008F7703C08091B0008F7D8093B00020
:10578000E32FF0E0EE0FFF1FEB5EF94EA591B49111
:105790002FB7F894662321F48C919095892302C049
:1057A0008C91892B8C932FBF089508955058BB2757
:1057B000AA270ED044C135D130F03AD120F031F4CF
:1057C0009F3F11F41EF42AC10EF4E095E7FB20C1BF
:1057D000E92F46D180F3BA1762077307840795074C
:1057E00018F071F49EF55EC10EF4E0950B2EBA2F01
:1057F000A02D0B01B90190010C01CA01A0011124D7
:10580000FF27591B99F0593F50F4503E68F11A1682
:10581000F040A22F232F342F4427585FF3CF469513
:1058200037952795A795F0405395C9F77EF41F1635
:10583000BA0B620B730B840BBAF09150A1F0FF0FFF
:10584000BB1F661F771F881FC2F70EC0BA0F621FEB
:10585000731F841F48F4879577956795B795F795DB
:105860009E3F08F0B3CF9395880F08F09927EE0F6D
:10587000979587950895A8D008F481E008950CD0F5
:10588000DEC0D6D040F0CDD030F021F45F3F19F02B
:10589000BFC0511108C1C2C0E3D098F39923C9F326
:1058A0005523B1F3951B550BBB27AA276217730726
:1058B000840738F09F5F5F4F220F331F441FAA1FDA
:1058C000A9F333D00E2E3AF0E0E830D0915050409A
:1058D000E695001CCAF729D0FE2F27D0660F771F48
:1058E000881FBB1F261737074807AB07B0E809F02A
:1058F000BB0B802DBF01FF2793585F4F2AF09E3FBF
:10590000510568F085C0CFC05F3FECF3983EDCF3F3
:10591000869577956795B795F7959F5FC9F7880F37
:10592000911D9695879597F90895E1E0660F771F89
:10593000881FBB1F621773078407BA0720F0621B1A
:10594000730B840BBA0BEE1F88F7E0950895E8946B
:1059500009C097FB3EF490958095709561957F4FB7
:105960008F4F9F4F9923A9F0F92F96E9BB27939565
:10597000F695879577956795B795F111F8CFFAF475
:10598000BB0F11F460FF1BC06F5F7F4F8F4F9F4FA6
:1059900016C0882311F096E911C0772321F09EE804
:1059A000872F762F05C0662371F096E8862F70E06A
:1059B00060E02AF09A95660F771F881FDAF7880F44
:1059C0009695879597F90895990F0008550FAA0B9A
:1059D000E0E8FEEF16161706E807F907C0F0121602
:1059E0001306E407F50798F0621B730B840B950B05
:1059F00039F40A2661F0232B242B252B21F408955A
:105A00000A2609F4A140A6958FEF811D811D0895F6
:105A100097F99F6780E870E060E008959FEF80EC61
:105A2000089500240A941616170618060906089504
:105A300000240A9412161306140605060895092E6A
:105A40000394000C11F4882352F0BB0F40F4BF2BD9
:105A500011F460FF04C06F5F7F4F8F4F9F4F089519
:105A600057FD9058440F551F59F05F3F71F047950F
:105A7000880F97FB991F61F09F3F79F087950895F4
:105A8000121613061406551FF2CF4695F1DF08C013
:105A9000161617061806991FF1CF86957105610530
:105AA00008940895E894BB2766277727CB0197F9D8
:105AB0000895629FD001739FF001829FE00DF11D58
:105AC000649FE00DF11D929FF00D839FF00D749F78
:105AD000F00D659FF00D9927729FB00DE11DF91F24
