:100000000C943F0D0C94042F0C94312F0C94670D1D
:100010000C94670D0C94670D0C94670D0C94670D90
:100020000C94670D0C94670D0C94670D0C94670D80
:100030000C94670D0C94670D0C94670D0C94670D70
:100040000C94B62F0C94670D0C94A32A0C94F12AEF
:100050000C94670D0C94670D0C94670D0C94670D50
:100060000C94EE140C94670DFFD0FFE0FFCFFF64FB
:10007000FFD1FF32380C060201FF64FFD0FFFE0102
:10008000050700FF0601150227207FFF06FF06FF78
:10009000080050221656808080800080153353A0BF
:1000A000A0A002555550F850F85002555570A07058
:1000B000287002465680902040901002455540A07E
:1000C00040A05025135380808012265640808080A7
:1000D0008040122656804040404080123555A04056
:1000E000E040A00255552020F820201133536040F5
:1000F00080044151F0122252C0C0034454102040E9
:100100008012365640A0A0A0A04012365640C040F3
:100110004040E00246566090102040F0024656F003
:1001200010601090600246562060A0F02020024629
:1001300056F080E01090600246566080E09090603B
:10014000024656F0102020404002465660906090D3
:100150009060024656609090701060122555C0C0A5
:1001600000C0C001365660600060408012355520E6
:1001700040804020034353F000F01235558040206A
:10018000408012365640A020400040024656609003
:10019000B0B08060024656609090F0909002465653
:1001A000E090E09090E0024656609080809060027F
:1001B0004656E090909090E0024656F080E08080B5
:1001C000F0024656F080E0808080024656609080C3
:1001D000B090700246569090F0909090123656E093
:1001E00040404040E0024656101010109060024619
:1001F0005690A0C0C0A0900246568080808080F0BB
:1002000002465690F0F090909002465690D0D0B0B2
:10021000B090024656609090909060024656E090F2
:1002200090E0808001475760909090D06010024627
:1002300056E09090E0A0900246566090402090607A
:10024000123656E040404040400246569090909012
:100250009060024656909090906060024656909052
:1002600090F0F09002465690906060909012365652
:10027000A0A0A0404040024656F010204080F0125E
:100280003656E080808080E0034454804020101285
:100290003656E020202020E016325240A002415184
:1002A000F016225280400244547090B050024656DC
:1002B0008080E09090E00234546080806002465676
:1002C00010107090907002445460B0C060024656A6
:1002D000205040E0404001455570906080700246DB
:1002E000568080E09090901236564000C04040E02A
:1002F0001137572000202020A0400246568080A0C1
:10030000C0A090123656C040404040E0024454A085
:10031000F09090024454E090909002445460909089
:1003200060014555E09090E08001455570909070D7
:1003300010024454E090808002445470C030E002C7
:1003400046564040E0404030024454909090701235
:100350003454A0A0A0400244549090F0F0024454C1
:10036000906060900145559090502040024454F0B8
:100370002040F01236562040C040402022165680C1
:1003800080808080801236568040604040800642E7
:100390005250A0FF00101000FE0A06A7089500FFAB
:1003A000FE0EFE0BFE1010201000FEAAAA00018017
:1003B00000000180004A51EA505A51C99E00018054
:1003C0000000018000000180005555101020100031
:1003D000FEAAAA00018000000180003993C25232B7
:1003E0005F8A5271938000000180000001800055F7
:1003F000551010201000FEAAAA0001800000018004
:10040000003BA5C124311989247125800000018099
:10041000000001800055551010201000FEAAAA000F
:10042000018000000180007BA5C1247919C12479D5
:10043000258000000180000001800055551010202B
:100440001000FEAAAA000180000001800079BFC24E
:10045000487A49C248798980000001800000018003
:100460000055551010201000FEAAAA0001800000BF
:100470000180007A4DC2527B53C2D67A4F80000071
:100480000180000001800055551010201000FEAAC8
:10049000AA000180000001800031A5CA287A31CA73
:1004A0002849A580000001800000018000555510FA
:1004B00010201000FEAAAA00018000000180007335
:1004C000D1CA1073D1CA1073DF8000000180000010
:1004D00001800055551010201000FEAAAA000180CE
:1004E000000001800078E1C50078C1C42079C18096
:1004F0000000018000000180005555101020100000
:10050000FEAAAA000180000001800045F1C4407CE1
:1005100041C440444180000001800000018000553A
:10052000551010201000FEAAAA00018000000180D2
:100530000041F1C10041F1C1007D01800000018056
:10054000000001800055551010201000FEAAAA00DE
:100550000180000001800045F1C4404441A84010E2
:1005600041800000018000000180005555101020DE
:100570001000FEAAAA00018000000180007DF1C1E8
:10058000007DF1C100410180000001800000018078
:100590000055551010201000FEAAAA00018000008E
:1005A0000180003DE1C11041E1C1203D118000000A
:1005B0000180000001800055551010201000FEAA97
:1005C000AA00018000000180003CE1C110391185C2
:1005D0001078E18000000180000001800055551076
:1005E00010201000FEAAAA00018000000180003D3A
:1005F000F1C0403841844079F18000000180000062
:1006000001800055551010201000FEAAAA0001809C
:1006100000000180007239CA204A39CA2073B980AB
:1006200000000180000001800055551010201000CE
:10063000FEAAAA00018000000180007189CA184A40
:1006400009CA08719D8000000180000001800055EA
:10065000551010201000FEAAAA00018000000180A1
:10066000007199CA044A09CA10719D800000018076
:10067000000001800055551010201000FEAAAA00AD
:10068000018000000180007199CA044A19CA0471EE
:100690009980000001800000018000555510102055
:1006A0001000FEAAAA00018000000180007185CA26
:1006B0000C4A15CA1C718580000001800000018071
:1006C0000055551010201000FEAAAA00018000005D
:1006D0000180004993EA546A59DBD44A53800000F0
:1006E0000180000001800055551010201000FEAA66
:1006F000AA00018000000180003453C29A3117899A
:100700001271138000000180000001800055551017
:1007100010201000FEAAAA00018000000180007BCA
:10072000B9C1247939C124793980000001800000E1
:1007300001800055551010201000FEAAAA0001806B
:1007400000000180003325C4B447ADC4A434A580A3
:10075000000001800000018000555510102010009D
:10076000FEAAAA00018000000180007D11C1B07DB9
:1007700051C1107D118000000180000001800055F2
:10078000551010201000FEAAAA0001800000018070
:10079000003A5DC252325D8A52719D800000018034
:1007A000000001800055551010201000FEAAAA007C
:1007B0000180000001800079CFC2107991C0507B88
:1007C0008F8000000180000001800055551010202E
:1007D0001000FEAAAA000180000001800079C1C2B9
:1007E000007981C0404381800000018000000180C9
:1007F0000055551010201000FEAAAA00018000002C
:1008000001800039C1C2005981C8403B818000008D
:100810000180000001800055551010201000FEAA34
:10082000AA000180000001800071C1CA007181D05E
:10083000404B818000000180000001800055551070
:1008400010201000FEAAAA000180000001800049CB
:10085000C1CA004981C84033818000000180000086
:10086000018000555500000008000E010A0A080426
:1008700000808080808080800080800504040802E1
:100880000888888888060A0A080100242424FC486D
:1008900048FC909090070A0A080100107C92907022
:1008A0001C12927C10070A0A0801006294946810D6
:1008B000102C52528C070A0A08010038444444386C
:1008C000728A848C7201040408040880808080038A
:1008D0000C0C0803FF2040408080808080804040D6
:1008E00020030C0C0802FF80404020202020202004
:1008F00040408007070708010110925438549210B5
:10090000070707080101101010FE10101002040460
:100910000803FEC0404080060101080104FC0202F9
:1009200002080300C0C0060A0A08010004040810F7
:10093000102020408080060A0A0801003048848484
:10094000848484844830050A0A0802002060A020BC
:100950002020202020F8060A0A0801007884840458
:100960001820408080FC060A0A080100788484046C
:10097000380404848478060A0A0801000818284804
:100980008888FC080808060A0A080100FC808080A4
:10099000F80404048478060A0A08010038408080BC
:1009A000F88484848478060A0A080100FC04040898
:1009B000080810101010060A0A08010078848484C0
:1009C000788484848478060A0A0801007884848400
:1009D0007C0404040870020707080301C0C000007B
:1009E00000C0C00209090803FFC0C0000000C040E9
:1009F00040800509090802000810204080402010AE
:100A000008060505080102FC000000FC05090908AC
:100A10000100804020100810204080060A0A0801CA
:100A20000078848404081010001010060A0A0801D7
:100A300000384494ACA4A4A49C403C060A0A0801D3
:100A4000003048488484FC84848484060A0A0801AF
:100A500000F8848484F884848484F8060A0A0801EF
:100A60000078848480808080848478060A0A080163
:100A700000F08884848484848488F0060A0A08014B
:100A800000FC808080F880808080FC060A0A0801D3
:100A900000FC808080F88080808080060A0A08013F
:100AA0000078848480809C84848C74060A0A0801FF
:100AB0000084848484FC8484848484050A0A080273
:100AC00000F82020202020202020F8070A0A080112
:100AD000003E080808080808888870060A0A080105
:100AE00000848890A0C0C0A0908884060A0A0801EB
:100AF00000808080808080808080FC060A0A080157
:100B0000008484CCCCB4B484848484060A0A0801AA
:100B10000084C4C4A4A494948C8C84060A0A08019A
:100B20000078848484848484848478060A0A080192
:100B300000F8848484F88080808080070B0B080193
:100B4000FF78848484848484B4CC7806060A0A08F6
:100B50000100F8848484F89088888484060A0A084E
:100B6000010078848480601804848478070A0A0865
:100B70000100FE101010101010101010060A0A08C4
:100B8000010084848484848484848478070A0A0825
:100B9000010082828244444428281010060A0A0870
:100BA000010084848484B4B4CCCC8484060A0A080A
:100BB000010084844848303048488484070A0A0881
:100BC000010082824444281010101010060A0A08FE
:100BD0000100FC0404081020408080FC030C0C0879
:100BE00004FFE080808080808080808080E0060A32
:100BF0000A08010080804020201010080404030C23
:100C00000C0801FFE020202020202020202020E0D0
:100C10000603030801093048840701010801FFFEAB
:100C200003030308020A8040200608080801007830
:100C300084047C84848C74060B0B08010080808003
:100C4000B8C484848484C4B8060808080100788481
:100C5000808080808478060B0B08010004040474F3
:100C60008C848484848C7406080808010078848449
:100C7000FC80808478050B0B08010018202020F8E8
:100C8000202020202020060B0B0801FE04748888F9
:100C900088704078848478060B0B0801008080807F
:100CA000B8C4848484848484050B0B08020020204B
:100CB0000060202020202020F8050D0D0801FE08EE
:100CC000080018080808080808089060060A0A08BA
:100CD000010080808890A0C0A0908884050A0A083E
:100CE0000200602020202020202020F8070808088B
:100CF0000100EC92929292929292060808080100EA
:100D0000B8C4848484848484060808080100788434
:100D1000848484848478060A0A0801FEB8C4848422
:100D20008484C4B88080060A0A0801FE748C848416
:100D300084848C740404060808080100B8C4848004
:100D4000808080800608080801007884806018048C
:100D50008478050A0A0801002020F820202020209D
:100D600020180608080801008484848484848C7414
:100D70000608080801008484844848483030070881
:100D800008080100829292929292926C06080808DA
:100D900001008484483030488484060A0A0801FE31
:100DA00084848484844C3404047806080808010090
:100DB000FC040810204080FC030C0C0803FF60803A
:100DC00080404080804040808060010E0E0804FE1C
:100DD0008080808080808080808080808080030C04
:100DE0000C0802FFC020204040202040402020C0AE
:100DF00007030308010862928C1010201000FEAA5D
:100E0000AA000180000001800073D1CA104BD1CA32
:100E10001073DF8000000180000001800055551034
:100E200010201000FEAAAA000180000001800071BD
:100E30009DCA5273D3C252425D80000001800000FF
:100E400001800055551010201000FEAAAA00018054
:100E50000000018000499DCA527A5DCA50499180C4
:100E60000000018000000180005555101020100086
:100E7000FEAAAA00018000000180007393CA527389
:100E80009FCA12721380000001800000018000558B
:100E9000551010201000FEAAAA0001800000018059
:100EA000004B93EA525B9FCA524B93800000018033
:100EB000000001800055551010201000FEAAAA0065
:100EC0000180000001800074B9A6A425A5A4A47423
:100ED000B9800000018000000180005555101020ED
:100EE0001000FEAAAA00018000000180004BD1EA98
:100EF000105BD1CA104BDF80000001800000018030
:100F00000055551010201000FEAAAA000180000014
:100F100001800039CDC212319F8852739380000046
:100F20000180000001800055551010201000FEAA1D
:100F3000AA000180000001800079CDC212799FC013
:100F4000527B938000000180000001800055551005
:100F500010201000FEAAAA00018000000180004BB2
:100F60009DC9207919C90449398000000180000019
:100F700001800055551010201000FEAAAA00018023
:100F800000000180004BB9C9087909C908493180BE
:100F90000000018000000180005555101020100055
:100FA000FEAAAA000180000001800045CDC4904443
:100FB00089A88410998000000180000001800055FC
:100FC000551010201000FEAAAA0001800000018028
:100FD00000721DCA127213C21243DD80000001802C
:100FE000000001800055551010201000FEAAAA0034
:100FF000018000000180007213CA127213C21243F2
:10100000CD800000018000000180005555101020A7
:101010001000FEAAAA00018000000180000E2189B4
:10102000200E218A2009218000000180000001801B
:101030000055551010201000FEAAAA0001800000E3
:1010400001800039DDC202318D8850739F8000001D
:101050000180000001800055551010201000FEAAEC
:10106000AA000180000001800039DDC202318D88B4
:1010700042739D80000001800000018000555510E2
:1010800010201000FEAAAA0001800000018000715B
:10109000CFCA104A0DCA0271DD8000000180000035
:1010A00001800055551010201000FEAAAA000180F2
:1010B00000000180007245CA4C7245C244418F80D5
:1010C0000000018000000180005555101020100024
:1010D000FEAAAA0001800000018000725DCA42726F
:1010E0004DC250419F8000000180000001800055EA
:1010F000551010201000FEAAAA00018000000180F7
:10110000003B9DC1203119890471398000000180A4
:10111000000001800055551010201000FEAAAA0002
:101120000180000001800039D3C212421FC212396F
:10113000D380000001800000018000555510102070
:101140001000FEAAAA00018000000180004511EDF8
:10115000105551C5B045118000000180000001808C
:101160000055551010201000FEAAAA0001800000B2
:101170000180003B8DC252339F8A1272138000009F
:101180000180000001800055551010201000FEAABB
:10119000AA00018000000180007B8DC2527B9FC2AB
:1011A000127A138000000180000001800055551064
:1011B00010201000FEAAAA00018000000180003962
:1011C0008FC250324D8A42719D8000000180000024
:1011D00001800055551010201000FEAAAA000180C1
:1011E0000000018000339BC42225A394A2639B804E
:1011F00000000180000001800055551010201000F3
:10120000FEAAAA000180000001800039DDC2083278
:10121000098A0871DD80000001800000018000550E
:10122000551010201000FEAAAA00018000000180C5
:101230000039DDC2084189C0483B9D800000018023
:10124000000001800055551010201000FEAAAA00D1
:10125000018000000180000EF990200C2182201CEA
:1012600021800000018000000180005555101020F1
:101270001000FEAAAA000180000001800031CFCA40
:10128000104991C850338F80000001800000018018
:101290000055551010201000FEAAAA000180000081
:1012A0000180007221CB6072A1C220422180000027
:1012B0000180000001800055551010201000FEAA8A
:1012C000AA0001800000018000338FCA507B91CAC0
:1012D000104A0F8000000180000001800055550079
:1012E000000008000E010A0A0804008080008080C7
:1012F0008080808080070A0A08010010107C92908C
:1013000090927C1010070A0A0801001C202020F887
:101310002020207CC206080808010184487848483B
:10132000784884070A0A08010082442810FE10FE4B
:10133000101010010A0A08040080808080000080DC
:10134000808080060A0A0801007884807884847886
:1013500004847804020208020C9090080A0A08002B
:10136000003C4299A5A1A1A599423C0507070802A6
:1013700005700878887800F8060909080100242417
:1013800048489048482424060404080100FC04044A
:1013900004060101080104FC080A0A0800003C4296
:1013A000B9A5A5B9A9A5423C06010108010BFC039A
:1013B000040408020A40A0A040070909080101101E
:1013C0001010FE10101000FE0507070802057088B7
:1013D00008708080F8050707080205708808700803
:1013E000887003030308030A2040800508080802E8
:1013F000FE88888888D8A88080060C0C0801FF7CAD
:10140000F4F4F4F47414141414141C020202080307
:1014100004C0C00302020802FE20C003070708023E
:10142000052060A0202020200507070802057088FD
:1014300088887000F806090908010090904848243F
:1014400048489090060A0A08010044C448505024B5
:101450002C549C84060A0A08010044C448505028B1
:101460003444889C060A0A080100C4244830D02469
:101470002C549C84060A0A08010010100010106009
:1014800084848478060E0E0801006018000030483D
:10149000488484FC84848484060E0E08010018604D
:1014A00000003048488484FC84848484060E0E083E
:1014B0000100304800003048488484FC84848484DF
:1014C000060E0E080100649800003048488484FC31
:1014D00084848484060E0E080100484800003048C9
:1014E000488484FC84848484060E0E0801003048FD
:1014F00030003048488484FC84848484070A0A08C5
:1015000001003E509090FE909090909E060C0C082A
:1015100001FE788484808080808484781060060E48
:101520000E08010060180000FC808080F880808038
:1015300080FC060E0E08010018600000FC80808010
:10154000F880808080FC060E0E0801003048000004
:10155000FC808080F880808080FC060E0E080100F0
:1015600048480000FC808080F880808080FC050E68
:101570000E08020060180000F82020202020202003
:1015800020F8050E0E08020030C00000F8202020D0
:101590002020202020F8050E0E0802006090000098
:1015A000F82020202020202020F8050E0E08020020
:1015B00090900000F82020202020202020F8070A0A
:1015C0000A08000078444242F24242424478060E41
:1015D0000E0801006498000084C4C4A4A494948CF0
:1015E0008C84060E0E080100601800007884848444
:1015F000848484848478060E0E080100186000003C
:1016000078848484848484848478060E0E0801009F
:101610003048000078848484848484848478060E2E
:101620000E08010064980000788484848484848493
:101630008478060E0E0801004848000078848484EF
:10164000848484848478060505080102844830482F
:1016500084060C0C0801FF0474888C9494A4A4C420
:1016600044B880060E0E08010060180000848484CF
:1016700084848484848478060E0E08010018600037
:101680000084848484848484848478060E0E080113
:1016900000304800008484848484848484847806B0
:1016A0000E0E0801004848000084848484848484E9
:1016B000848478070E0E08010018600000828244BE
:1016C00044281010101010060B0B0801008080F049
:1016D00088848488F0808080060A0A080100708867
:1016E0008888F8848484C4B8060C0C08010060184B
:1016F00000007884047C84848C74060C0C0801003F
:10170000186000007884047C84848C74060C0C08B7
:101710000100304800007884047C84848C74060CBA
:101720000C080100649800007884047C84848C7424
:10173000060C0C080100484800007884047C84846E
:101740008C74060D0D0801003048300000788404C8
:101750007C84848C740708080801007C92127E90B7
:1017600090927C060A0A0801FE788480808080843A
:10177000781060060C0C0801006018000078848462
:10178000FC80808478060C0C08010018600000784A
:101790008484FC80808478060C0C080100304800AA
:1017A00000788484FC80808478060C0C0801004852
:1017B000480000788484FC80808478050C0C080242
:1017C00000C030000060202020202020F8050C0CF4
:1017D00008020030C0000060202020202020F805F2
:1017E0000C0C0802006090000060202020202020C7
:1017F000F8050C0C080200909000006020202020CA
:101800002020F8060C0C08010064182844047C848D
:101810008484848478060C0C08010064980000B865
:10182000C4848484848484060C0C0801006018003D
:10183000007884848484848478060C0C0801001861
:101840006000007884848484848478060C0C080109
:1018500000304800007884848484848478060C0CEA
:101860000801006498000078848484848484780665
:101870000C0C080100484800007884848484848427
:1018800078060707080101300000FC000030060A56
:101890000A0801FF04788C9494A4A4C47880060CF0
:1018A0000C080100601800008484848484848C7493
:1018B000060C0C0801001860000084848484848471
:1018C0008C74060C0C080100304800008484848469
:1018D00084848C74060C0C08010048480000848441
:1018E000848484848C74060E0E0801FE1860000047
:1018F00084848484844C34040478050C0C0802FE2F
:101900008080F088888890A0C0808080060E0E08B5
:1019100001FE4848000084848484844C34040478A4
:1019200000000000240027002A000000000025001D
:1019300028002B00000000002300260029000404DA
:101940000404040404040202020202020303030367
:101950000303010204081020408001020408102043
:10196000010204081020000000070002010000032B
:101970000406000000000000000000407A10F35A46
:1019800000A0724E18090010A5D4E80000E87648BF
:10199000170000E40B54020000CA9A3B000000E16B
:1019A000F505000080969800000040420F000000FE
:1019B000A08601000000102700000000E8030000DE
:1019C00000006400000000000A00000000000100A8
:1019D000000000002C76D888DC674F0823DFC1DFC9
:1019E000AE59E1B1B796E5E3E453C63AE6519976CC
:1019F00096E8E6C28426EB898C9B62ED407C6FFC06
:101A0000EFBC9C9F40F2BAA56FA5F490055A2AF747
:101A10005C936B6CF9676DC11BFCE0E40D47FEF550
:101A200020E6B500D0ED902E0300943577050080B8
:101A3000841E080000204E0A000000C80C33333317
:101A4000330F986E12831141EF8D2114893BE655B7
:101A500016CFFEE6DB18D1844B381BF77C1D901D9A
:101A6000A4BBE424203284725E228100C9F124ECFC
:101A7000A1E53D27D90FD7164E299D2A5D2C1124AB
:101A80001FBECFEFD8E0DEBFCDBF12E0A0E0B1E0D7
:101A9000E4ECF9E602C005900D92A235B107D9F742
:101AA00017E0A2E5B2E001C01D92A632B107E1F74E
:101AB0001AE1CEE7DAE104C02297FE010E94A534C4
:101AC000C437D107C9F70E94A72F0C94E0340C94B7
:101AD0000000EF92FF920F931F93F22FF02E47FD1D
:101AE00002C0E4E001C0E4E1242F332727FD309554
:101AF00037FF03C0309521953F4F4F2D512F0F2FAA
:101B0000EE2E0E948A0D8F2D912F1F910F91FF9025
:101B1000EF900895A9E0B0E0E0E9FDE00C94AD3469
:101B20006A01122FA02EBE2C2BE3201718F42CE3F1
:101B3000922E02C0902E9394AE014F5F5F4F27E02C
:101B4000092D0E94EC0EBC018981E82EFF24C701FB
:101B500089709070019711F4ADE209C0B1FE02C026
:101B6000ABE205C0B0FC02C0A0E001C0A0E2E3FE11
:101B70003BC0AA2311F423E001C024E0211710F098
:101B800020E002C0121B212FEB2CB4FE02C0322F2A
:101B90000AC0F601322F80E202C081933150332314
:101BA000E1F7C20ED11CAA2319F0F601A1936F012F
:101BB000F6013196E2FE05C09EE4D6019C9381E4D5
:101BC00004C09EE6D6019C9381E611968C93918386
:101BD0003296DF01832F90E202C09D9381508823CB
:101BE000E1F7E30FF11D40C0E2FE42C0AA2311F469
:101BF00023E001C024E0211710F020E002C0121BF6
:101C0000212FEB2CB4FE02C0922F0AC0F601922FB6
:101C100080E202C0819391509923E1F7C20ED11C5A
:101C2000AA2319F0F601A1936F01F6013196E2FEA5
:101C300008C089E4D6018C938EE411968C9386E4D7
:101C400007C089E6D6018C938EE611968C9386E6C2
:101C500081833296DF01892F20E202C02D938150CB
:101C60008823E1F7E90FF11D10822EEF3FEFAFC09F
:101C7000161617061CF041E050E003C0AB014F5FA1
:101C80005F4FAA2019F480E090E003C08A2D90E015
:101C9000019620E030E0AA2311F021E030E0240F8B
:101CA000351F280F391F812F90E02817390714F0AE
:101CB00020E002C0121B212F4B2D50E0CA01807181
:101CC0009070B4FC0DC0B3FC0BC0F601322F40E2A3
:101CD00002C0419331503323E1F7C20ED11C01C041
:101CE000322FAA2319F0F601A1936F01892B11F06D
:101CF000132F0AC0F601132F80E302C08193115005
:101D00001123E1F7C30ED11C092D060FBA8090E113
:101D1000892E912C8E209F20E4FE04C0F1E3BF1693
:101D200009F40150101614F001E003C0093008F066
:101D300008E09B0177FF02C020E030E0CB01019674
:101D4000821B930BFE013196E80FF91F8EE2F82EED
:101D50003B01601A71088A2D90E044275527481BE3
:101D6000590B8FEF2F3F380719F4D601FD926D0103
:101D7000621773072CF06216730614F4808101C099
:101D800080E32150304031962417350724F0D601E6
:101D90008D936D01E6CF2617370749F4B5E3BB15E0
:101DA00028F0BB1621F48114910409F481E3F601B3
:101DB0008193D601812F90E202C09C9381501196AD
:101DC0008823D9F7E10FF11D108220E030E0C9012E
:101DD0002996EEE00C94C934283008F027E0332728
:101DE000DA01990F311D87FD91600096610571053B
:101DF00039F432602E5F3D9330E32A95E1F7089580
:101E00009F3F30F080387105610509F03C5F3C5F11
:101E10003D93913008F08068911DDF93CF931F931D
:101E20000F93FF92EF92192F987F9695E92F969531
:101E30009695E90FFF27EC52F64E99273327EE24AB
:101E4000FF24A701E70105900894079428F4360FB2
:101E5000E71EF81E491F511D660F771F881F991F27
:101E60000694A1F70590079428F4E70EF81E491F81
:101E7000561FC11D770F881F991F661F0694A1F773
:101E80000590079428F4F80E491F561FC71FD11D4F
:101E9000880F991F661F771F0694A1F70590079476
:101EA00020F4490F561FC71FD81F990F661F771FB1
:101EB000881F0694A9F784911095177041F0D69564
:101EC000C79557954795F794E7941A95C1F7EAE7B0
:101ED000F9E168941590159135916591959105906A
:101EE0007FE27395E118F10A430B560BC90BD00939
:101EF000C0F7E10CF11E431F561FC91FD01D7EF411
:101F0000703311F48A95E6CFE894015030F0080F51
:101F10000AF40027021708F4202F2395022F7A33A2
:101F200028F079E37D932A95E9F710C07D932A95EF
:101F300089F6069497956795379517951794E11844
:101F4000F10A430B560BC90BD00998F023957E91EB
:101F500073957A3308F070E37C932013B8F77E9181
:101F600070617D9330F0839571E37D9370E32A95E2
:101F7000E1F71124EF90FF900F911F91CF91DF9126
:101F8000992787FD90950895FF920F931F938C01D9
:101F9000262FFC01F3AC04966F2D44AD0E94141C57
:101FA000F80EF801F3AE81E090E01F910F91FF90E1
:101FB0000895AF92BF92CF92EF920F936091F40188
:101FC0007091F50140915E0250915F0280E692E0CF
:101FD00026EE30E10E94E31310927E0210927D0201
:101FE0008DE7A82E82E0B82E89E192E0F501929368
:101FF00082935F01CF016EEF71E046E029E008E0D7
:10200000EE24EA94CC24CA940E94D01E81E192E08E
:10201000F501918380830F91EF90CF90BF90AF90A7
:1020200008950F931F9300915C0210915D020E942E
:1020300099218017910764F400915C0210915D0270
:102040000E9499219C01201B310B245C3F4F09C049
:102050000E94992120915C0230915D02821B930BBA
:102060009C01C9011F910F9108950F931F93009137
:102070005802109159020E94A1218017910764F41F
:1020800000915802109159020E94A1219C01201B2D
:10209000310B245C3F4F09C00E94A12120915802BE
:1020A00030915902821B930B9C01C9011F910F9122
:1020B00008950E94A9210797409718F022E030E088
:1020C00002C021E030E0C901089580E692E00E945C
:1020D000E61380E692E00E94E7128823D1F780E6BB
:1020E00092E00E94F6122FEF8C3F920771F12FEFD2
:1020F0008D3F920764F42FEF8A3F920781F12FEF13
:102100008B3F92073CF5895F9F4FA9F52DC02FEFBC
:102110008E3F920781F02FEF8E3F92078CF02FEFCA
:102120008F3F920719F0892B61F125C086EF96E069
:1021300060E071E01DC086EF96E067E171E018C0D5
:1021400086EF96E062E371E013C086EF96E062E509
:1021500071E00EC086EF96E06EE671E009C086EF92
:1021600096E060E871E004C086EF96E06CE971E00B
:102170000E94BB2E089586EF96E060EB71E00E940E
:10218000BB2E08958091E20161E00E94A031809110
:10219000E40160E070E00E9401318091E6016FEFA0
:1021A00070E00E94013108958091E20160E00E9498
:1021B000A0318091E4016FEF70E00E9401318091C5
:1021C000E60160E070E00E940131089580E692E04F
:1021D0000E941713089586EF96E040E855E260E00C
:1021E00070E00E942C2B8091E20161E00E9461313D
:1021F0008091E60161E00E9461318091E40161E03B
:102200000E9461318091E80161E00E94613180911A
:10221000E8016FEF70E00E9401318DE79AE20E94C1
:1022200082210E94DD20029769F08FE792E064E945
:1022300073E00E946E1B8FE792E060E046E12EEBB8
:1022400031E00CC08FE792E064E973E00E946E1BFE
:102250008FE792E060E046E12AEC31E00E94EC1B5F
:1022600068EB7BE080E090E00E9477300895DF9299
:10227000EF92FF920F931F93CF93DF9335C086EFBA
:1022800096E00E94E42B182F86EF96E0612F0E94C3
:10229000DD2C143549F5EE24FF248701C0E0D0E0A1
:1022A00086EF96E00E94E42BD82E80538A30B8F453
:1022B000C801B7012AE030E040E050E00E94143449
:1022C0002D2D332727FD30952053304079010027ED
:1022D000F7FC0095102FE60EF71E081F191F219618
:1022E000CA30D105E9F609C086EF96E00E94B32B0B
:1022F0000B972CF6EE24FF248701B701C801DF916C
:10230000CF911F910F91FF90EF90DF900895AF92C2
:10231000BF92CF92DF92EF92FF920F931F93DF93C2
:10232000CF9300D000D00F92CDB7DEB78091B80226
:10233000882339F481E08093B8028FE792E00E940D
:10234000311D8FE792E00E94411DA4E1DA2E7E014B
:102350000894E11CF11C8FE792E06FE770E00E94A7
:102360006E1B1092B602D092B70260915402709127
:102370005502809156029091570245E021E0870175
:102380000E94690D4091540250915502609156028D
:10239000709157028BE792E022E030E00E94B82E65
:1023A0008FE792E00E94471D8823A9F686EF96E00A
:1023B0000E94B32B892B79F00E9437117B018C018D
:1023C000611571058105910531F00E94542AC801FB
:1023D000B7010E94E2200E94651080E692E00E9410
:1023E000FB126093540270935502809356029093AF
:1023F0005702809152020E94DF3000D000D0AA27FD
:1024000097FDA095BA2F2DE230E040E050E0EDB707
:10241000FEB72183328343835483BC01CD0120E086
:1024200030E040E050E0FFEFEF2EF3E0FF2E012D13
:10243000112DEFE0AE2EB12CC12CD12C0E945E2FBD
:102440008B010F900F900F900F906F30710549F432
:102450000E94D4108091E80165E070E00E94013193
:10246000A0C00E9411102091F2013091F301821757
:10247000930734F08091E80165E070E00E9401313B
:1024800080915A0290915B020817190711F4FF24FA
:1024900014C08091E8016FEF70E00E9401310E944A
:1024A000992190935D0280935C0264E670E080E085
:1024B00090E00E947730FF24F3940E945910019716
:1024C000B1F4B801660F771F660F771F600F711F99
:1024D000655B7F4F882777FD8095982F0E94F932A2
:1024E00020E030E040E251E40E945E320EC00E94E3
:1024F0005910029791F46091F0017091F1018827D1
:1025000077FD8095982F0E94F9326093EA017093CD
:10251000EB018093EC019093ED010E943510209126
:10252000F2013091F3018217930714F4FF2079F13F
:102530006091EE017091EF01882777FD8095982FCB
:102540000E94F9329B01AC016091EA017091EB01AC
:102550008091EC019091ED010E94F5319B01AC015D
:1025600060915402709155028091560290915702E9
:102570000E945A3288231CF40E94C21002C00E949A
:10258000D4100E94A1219093590280935802109375
:102590005B0200935A0264E670E080E090E00E94E3
:1025A000773068E873E180E090E00E9477300F9028
:1025B0000F900F900F900F90CF91DF911F910F917F
:1025C000FF90EF90DF90CF90BF90AF900895FC0107
:1025D00082819381029711F420E006C08281938169
:1025E00020E0039709F021E0822F0895FC01248167
:1025F0003581C9010895FC0182819381039749F4D3
:1026000064817581882777FD8095982F0E94F93223
:102610000DC082819381029729F060E070E080EA2A
:1026200090EC04C06789708D818D928D0895CF9351
:10263000DF93EC010E940C30AB012D853E85421BDF
:10264000530B7E876D8787E14137580764F08EEF23
:102650009FEF9D838C8383E090E09B838A838F85AB
:102660000E94F12E80C02A813B812115310529F07D
:102670002130310509F077C018C0493151053CF4CB
:102680008D859E85841B950B9E878D876CC04E57CC
:1026900050404034510518F481E090E062C08F85CD
:1026A0000E94F12E8DEF9FEF58C04A30510534F44F
:1026B0008F850E94F12E8AEF9FEF4FC0CA01CD9700
:1026C0008E35910508F044C04B3551056CF08C8572
:1026D000FE01E80FF11D86819B8502C0220F331F8A
:1026E0009A95E2F7822B86838B85882369F587E0AC
:1026F0008B878C858F5F8C8781508430A1F58F8587
:102700000E94F12E6E8170E080E090E00E94F7322E
:102710006B8B7C8B8D8B9E8B688570E080E090E06E
:102720000E94F7326F8B788F898F9A8F2E818885E0
:102730009A85820F981719F08FEF9FEF0EC01D82B8
:102740001C8282E090E00DC08B8581508B870BC08E
:102750008F850E94F12E8CEF9FEF9D838C8383E009
:1027600090E09B838A83DF91CF910895FF920F932E
:102770001F938C01F62EFC01508B4787618B728B67
:102780003183208380E090E0A0E0B0E0838B948BE5
:10279000A58BB68B878B908FA18FB28F862F61E030
:1027A0000E9461318F2D61E00E94A03183E090E0B2
:1027B000F8019383828389EF9FEF958384831F9130
:1027C0000F91FF9008950E94B6130895CF93DF9361
:1027D000EC018A819B81039739F08A819B81029762
:1027E00019F02BEF3FEF3DC01B821A821E821F8221
:1027F000188619861A8687E08B871C8680E090E011
:10280000A0E0B0E08B8B9C8BAD8BBE8B8F8B988FB9
:10281000A98FBA8F898961E00E946131898960E05E
:102820000E94A03162E170E080E090E00E94773089
:10283000898961E00E94A03188E290E00E943230F4
:10284000898960E00E9461310E940C307E876D872B
:10285000688179818F8542E050E00E94CE2E21E090
:1028600030E0C901DF91CF910895382F413210F047
:1028700040E042C08091B9028823E1F791E0909353
:10288000B9022093BB028FEF809326031092E102DE
:1028900041504093E2024F5F9093BA028091BA0296
:1028A000330F832B8093BA028091BC02813041F4B4
:1028B0001092BC028091BA028093BB0085EC01C0EB
:1028C00085EE8093BC008091B9028130E1F3809164
:1028D000E102841710F44091E10220E030E00AC0E8
:1028E000FB01E20FF31FD901AF53BD4F8C918083E1
:1028F0002F5F3F4F2417A0F3842F08950F931F934A
:10290000582F122F413210F081E04AC08091B90255
:102910008823E1F782E08093B9020093BB028FEF36
:10292000809326031092E1024093E202A1ECB2E010
:10293000FB0102C081918D938E2F861B8417D0F3EB
:102940001092BA028091BA02550F852B8093BA0279
:102950008091BC02813041F41092BC028091BA0295
:102960008093BB0085EC01C085EE8093BC001123F1
:1029700021F08091B9028230E1F3809126038F3FEC
:1029800011F480E00DC080912603803211F482E0C2
:1029900007C080912603803311F084E001C083E0FA
:1029A0001F910F910895482F613210F081E0089532
:1029B0008091B902843011F082E00895609304039D
:1029C000A3EEB2E0842F9C01F90102C081918D93A6
:1029D0008E2F841B8617D0F380E008951F920F92EC
:1029E0000FB60F9211242F933F934F935F936F93E2
:1029F0007F938F939F93AF93BF93EF93FF938091B8
:102A0000B90090E0887F90708036910509F4F2C09B
:102A100081369105CCF58832910509F47BC0893265
:102A20009105B4F48031910509F46FC081319105AD
:102A30003CF4009709F447C1089709F04FC165C0FD
:102A40008831910509F466C0809709F047C182C0BA
:102A50008034910509F4A4C08134910544F4803395
:102A6000910509F482C0C89709F038C189C0803542
:102A7000910509F489C08835910509F496C0883418
:102A8000910509F02BC1AEC08839910509F413C135
:102A900089399105ECF48837910509F4ABC0893781
:102AA00091054CF48836910509F4A4C0803791054E
:102AB00009F014C19FC08838910509F4FCC0803921
:102AC000910509F49DC08038910509F007C198C0AF
:102AD000803B910509F4C6C0813B91054CF4803AD6
:102AE000910509F49FC0883A910509F0F7C0BAC072
:102AF000803C910509F4E3C0883C910509F4DFC0EE
:102B0000883B910509F0EAC0C2C08091BA02809367
:102B1000BB00CFC09091E1028091E202981768F467
:102B20009091E102E92FF0E0EF53FD4F8081809317
:102B3000BB009F5F9093E102BCC08091BB028823E1
:102B400009F44BC085ED8093BC008091BC0084FDEE
:102B5000FCCFC2C080E28093260385ED8093BC0049
:102B60008091BC0084FDFCCFB7C080E38093260336
:102B700085ED8093BC008091BC0084FDFCCFACC08F
:102B800088E3809326039BC08091E1029091BB0073
:102B9000E82FF0E0EF53FD4F90838F5F8093E102C9
:102BA0009091E1028091E20282C08091E1029091D5
:102BB000BB00E82FF0E0EF53FD4F90838F5F8093D1
:102BC000E1028091BB02882341F085ED8093BC0037
:102BD0008091BC0084FDFCCF7FC081E08093BC026B
:102BE00084EA6EC085ED8093BC008091BC0084FDBA
:102BF000FCCF72C083E08093B9021092250359C0C4
:102C000080912503803208F056C080912503909171
:102C1000BB00E82FF0E0EB5FFC4F90838F5F809369
:102C2000250347C080912503803230F4E0912503CD
:102C3000F0E0EB5FFC4F108285ED8093BC0080914B
:102C4000BC0084FDFCCF1092B90260912503E09195
:102C5000BF02F091C00285E093E070E00995109208
:102C600025032DC084E08093B902109203031092D3
:102C70000403E091BD02F091BE0209958091040326
:102C8000882329F481E0809304031092E302909159
:102C90000303E92FF0E0ED51FD4F80818093BB00ED
:102CA0009F5F90930303909103038091040398170F
:102CB00010F485EC01C085E88093BC000FC085EC62
:102CC0008093BC0009C01092260385ED8093BC0060
:102CD0008091BC0084FDFCCF1092B902FF91EF916E
:102CE000BF91AF919F918F917F916F915F914F9124
:102CF0003F912F910F900FBE0F901F90189510923B
:102D0000B90281E08093BB021092BC0282E161E0D3
:102D10000E94A03183E161E00E94A031E9EBF0E084
:102D200080818E7F808380818D7F808388E4809303
:102D3000B80085E48093BC00089581E080936C0323
:102D40006093490310926A0310926B0308952091D7
:102D5000480330E080914703281B3109C9010895D9
:102D60004091470380914803481718F02FEF3FEF39
:102D70000AC0E42FF0E0E95DFC4F8081282F30E0AD
:102D80004F5F40934703C9010895E0914703809145
:102D90004803E81718F0EFEFFFEF06C0F0E0E95D39
:102DA000FC4F8081E82FF0E0CF0108950895109244
:102DB000700310926F0388EE93E0A0E0B0E0809380
:102DC000710390937203A0937303B093740381E231
:102DD00092E090936E0380936D030895CF92DF92FB
:102DE000EF92FF920F931F93CF93DF937C016B01C0
:102DF0008A0180916C038823A1F0C0E0D0E00DC06F
:102E0000D701ED91FC91D601AC0FBD1F0190F0816F
:102E1000E02DC7016C9109952196C017D10780F369
:102E200004C0CB01642F0E94D314C801DF91CF915D
:102E30001F910F91FF90EF90DF90CF900895DF9357
:102E4000CF930F92CDB7DEB7FC01698380916C03FD
:102E50008823C9F080916B03803238F081E090E0E4
:102E60009383828320E030E015C080916A03E82FCD
:102E7000F0E0E65BFC4F998190838F5F80936A035B
:102E800080936B0305C0CE01019661E00E94D314CC
:102E900021E030E0C9010F90CF91DF9108950F93A9
:102EA000062F809149036AE473E040916B0321E0AF
:102EB0000E947E1410926A0310926B0310926C03AE
:102EC0000F91089561E00E944F170895413208F074
:102ED00040E2862F67E273E00E94351410924703A8
:102EE00080934803089521E00E9466170895109288
:102EF00047031092480310926A0310926B030E94DA
:102F00007F1608950F93FC014150040F4F5F94A961
:102F100086A9841718F0091728F402C0091798F039
:102F2000041788F46150260F6F5F93A985A986174F
:102F300018F0291718F005C0291728F080E0261787
:102F400018F481E001C080E00F910895FB01048036
:102F5000F581E02D61E020E030E009950895FB0166
:102F60000480F581E02D63E020E030E009950895CC
:102F7000FB010480F581E02D64E040E020E030E0DA
:102F800009950895FB010480F581E02D64E041E09E
:102F900020E030E009950895FB010480F581E02DE3
:102FA00062E020E030E009950895FB010480F5819E
:102FB000E02D65E020E030E009950895FB010480F4
:102FC000F581E02D66E009950895CF92DF92EF92AA
:102FD000FF920F931F93CF93DF937C01EB016A0164
:102FE00000E0F6011491002361F41F3F11F401E0A9
:102FF00045C0C701BE01412F0E94D5178823F1F5B6
:1030000041C01F3F41F4C701BE014FEF0E94D517D9
:10301000882399F537C01E3F11F481E034C0103F7A
:1030200060F5103E38F01F70C701BE01412F0E94AD
:10303000CC1723C0103D38F01F70C701BE01412FCF
:103040000E94AF171AC0103C80F0C701BE010E9459
:10305000B8171295107F1E5F812F90E00E94C11952
:10306000C701BE010E94C21704C01E3B30F417FD09
:1030700004C0812F90E00E94C11900E00894C11C97
:10308000D11CAFCF80E0DF91CF911F910F91FF90C6
:10309000EF90DF90CF9008951F93CF93DF93EC01D3
:1030A000A39610E088818F3F39F061E00E94613182
:1030B000888161E00E94A0311F5F21961D3091F749
:1030C000DF91CF911F910895FC01E60FF11D83A1BF
:1030D0008F3F19F0642F0E94A0310895582F8091DE
:1030E000790320917A0370917B0360917C03A09116
:1030F0007D03B0917E03E0917F03F09180039FB741
:1031000090932507F8944C91482B3C91322398E0FA
:1031100057FF02C04C9301C03C938081862380837B
:1031200091508081872B8083992311F0550FF0CF28
:10313000809125078FBF08951F93162F882311F4C0
:1031400088EF03C0813019F48AEF0E946E18812F36
:10315000807F0E946E18812F8295807F0E946E185A
:103160000E94CB190E94CB190E94CB190E94CB1947
:103170001F910895DF92EF92FF920F931F93CF93C9
:10318000DF938C01F42EE22ED32E643009F464C058
:10319000653050F4623009F4E9C0633008F065C06E
:1031A000613009F0E5C00AC0663009F4A7C0663096
:1031B00008F49DC0673009F0DBC0C7C00E944C18FE
:1031C000C80162E040E00E946418C80164E041E088
:1031D0000E946418C80165E040E00E946418D801AC
:1031E00097962C9197979896EC9198974E2F50E040
:1031F000FA01E25CF64EE491F0E0EE0FFF1FE65DAF
:10320000F64E8591949190937E0380937D0330E0F8
:10321000F901E25CF64EE491F0E0EE0FFF1FE65D8F
:10322000F64E859194919093800380937F034E5A3C
:10323000564EFA018491809379032E5A364EF90145
:10324000949190937B03909590937C0380958093C9
:103250007A0396961C928CC0DC0193968C918F3FDA
:1032600009F486C0C80160E004C0442329F462E088
:1032700040E00E9464187CC062E041E00E94641853
:10328000F80127A180A5482F50E0FA01E25CF64E34
:10329000E491F0E0EE0FFF1FE65DF64E859194910C
:1032A00090937E0380937D0330E0F901E25CF64E5B
:1032B000E491F0E0EE0FFF1FE65DF64E85919491EC
:1032C0009093800380937F034E5A564EFA01849167
:1032D000809379032E5A364EF901249120937B0373
:1032E000209520937C03809580937A0341C0DC0174
:1032F00096968C91642F0E949C183AC0FC0186A17E
:10330000882341F488EF0E946E188E2D9D2D9C011C
:10331000E90110C08130C9F78AEFF5CF8881807F3D
:103320000E946E1889918295807F0E946E18FA948F
:103330000E94CB19FF2091F70E94CB190E94CB1954
:103340000E94CB190E94CB1913C0822F932FFC012E
:10335000EF0109C0FE016491D80196968C910E94FC
:103360009C182196FA94FF20A9F702C0FC0146A3FD
:1033700081E0DF91CF911F910F91FF90EF90DF904F
:1033800008952EE93FE004C0F9013197F1F7019764
:103390000097D1F7089588E290E00197F1F708953A
:1033A0008F929F92AF92BF92CF92DF92EF92FF9255
:1033B0000F931F93CF93DF937C01EB01C42E490140
:1033C0008AE0481729F0E5E14E1709F05AC00BC012
:1033D000C70143E00E94A617C701BE0148E650E0BE
:1033E0000E94E5174EC00A811B81C70140E00E9480
:1033F000CC17C701BE0141E00E94AF17F801D2808F
:103400000681178190E7A92EB12CA00EB11EC7012D
:10341000BE0140E00E94CC17C701BE014EE30E94EE
:10342000D517FFE1FD1550F04D2D4068C701BE01D5
:103430000E94D517C701BE0140E80AC04D2D405279
:103440004068C701BE010E94D517C701BE0148E808
:103450000E94D517C701BE0141E00E94CC17C701E9
:10346000BE0140E198010E94DE170A151B0521F0FC
:10347000005F1F4FD394CBCFC701BE0140E00E9435
:10348000AF17C701BE014C2D94010E94861EDF912B
:10349000CF911F910F91FF90EF90DF90CF90BF9051
:1034A000AF909F908F900895FC01E60FF11D8491DD
:1034B000382F20E03196E4912E0F311DC901089577
:1034C000FC01849108950E94601A882321F08230C3
:1034D00011F083E0089586E0089566E00E94541A92
:1034E000089568E00E94541A0895FC013A96E49108
:1034F0008E2F0895FC013B96E4918E2F08959F92A4
:10350000AF92BF92CF92DF92EF92FF920F931F93F1
:10351000CF93DF93EC01C62EFC80ED800F2D1E2D86
:103520008F2D9E2D0E94601AB82E8F2D9E2D0E94E9
:10353000631A982E81E0B81619F48FE0A82E02C005
:10354000AA24AA948F2D9E2D0E947A1AD82E80E646
:103550008C1558F48F2D9E2D0E94711A009729F01A
:10356000F801E80FF91F81E614C080E48C1558F4C7
:103570008F2D9E2D0E946D1A009729F0F801E80FFB
:10358000F91F81E406C08F2D9E2D0E94751AF80147
:103590007196DC1408F445C0D81608F442C0282FF0
:1035A000492D50E094919F3F11F4319636C02C156F
:1035B00009F02BC0BB2019F082E0B81681F4849189
:1035C0008B8B319684918C8B32968491888B31963B
:1035D0008491898B3196849135978A8B29C0892F64
:1035E0008F7082508A8B92959F70998B31968491BF
:1035F000982F9F709C8B82958F708B8B31968491C6
:10360000329782958F70888B13C03296849132974F
:103610008A21E80FF11DE40FF51F2D1511F02F5F22
:10362000C1CF188A1B8A1C8A198A1A8AE0E0F0E046
:10363000CF01DF91CF911F910F91FF90EF90DF901D
:10364000CF90BF90AF909F900895DC011496ED91BC
:10365000FC911597309709F438C057968C9157977D
:10366000882339F43596849158968C9358973796D9
:103670000AC0813011F43F9601C03D96849158965E
:103680008C9358973196849159968C935997589664
:103690008C915897282F332727FD309559968C9178
:1036A0005997992787FD9095281B390B5A968C912D
:1036B0005A97803441F0289F9001112496E0369566
:1036C00027959A95E1F75B962C93089580E00895ED
:1036D00026E63BE1FC01368B258B0895CF93DF93E3
:1036E000EC018C819D818617970749F07D836C835F
:1036F000CE010E94251B86E69BE19E8B8D8BDF9180
:10370000CF9108954F925F926F927F928F929F9286
:10371000AF92BF92CF92DF92EF92FF920F931F93DF
:10372000CF93DF937C01062FB42E622F0E947F1A65
:10373000EC01009711F480E03EC0F701C480D58011
:10374000138974888188800E82899B2C9718981A17
:10375000C701682D492D212F072D0E94821788232C
:1037600041F1C6010E94631A67E0A62EA10EA6943D
:10377000A694A6946E01C80ED11CBB244A2C5524D5
:1037800011C0FE010491C701612F462D20E00E9467
:10379000571D2196185F9E012C192A1590F3C40C11
:1037A000D51CB3946B2C690CB71418F4E601182DD2
:1037B000F2CFF7018089DF91CF911F910F91FF9098
:1037C000EF90DF90CF90BF90AF909F908F907F90C1
:1037D0006F905F904F900895DF92EF92FF920F935A
:1037E0001F93CF93DF938C01D62EE42EE901DC01E9
:1037F0005596ED91FC9156970995E80EFF2408C067
:10380000C8016D2D4E2D0E94821BD80EF80E2196F8
:1038100028812223A9F78F2DDF91CF911F910F913E
:10382000FF90EF90DF900895DF92EF92FF920F9359
:103830001F938C01E62EF42ED22EDC015596ED91CD
:10384000FC9156970995F80EC8016E2D4F2D2D2D20
:103850000E94821B1F910F91FF90EF90DF900895BF
:10386000EF92FF920F931F938C017B01DC01D196A5
:10387000ED91FC91D29782E00995D701ED91FC91F1
:10388000C801B7014AE020E030E00995F82ED801E0
:10389000D196ED91FC91D29783E00995D801D1960C
:1038A000ED91FC91D29780E009958F2D1F910F919A
:1038B000FF90EF900895EF92FF920F931F938C016A
:1038C0007B01DC01D196ED91FC91D29782E00995C4
:1038D000D801D196ED91FC91D29781E00995D7015D
:1038E000ED91FC91C801B70144E120E030E0099579
:1038F00098012D5C3F4FD701ED91FC91C801B701B4
:1039000047E10995D801D196ED91FC91D29780E0DD
:1039100009951F910F91FF90EF900895FF920F93DB
:103920001F93CF93DF93EC018B01E9A9FAA982E001
:103930000995E9A9FAA981E00995D801ED91FC91D1
:10394000CE01B80145E120E030E00995F82E88234A
:1039500051F09E012D5C3F4FD801ED91FC91CE01BD
:10396000B80147E10995E9A9FAA980E009958F2DE9
:10397000DF91CF911F910F91FF900895EF920F93D8
:10398000CF93DF93FC01448F258F078FE68EEB01E9
:10399000A881B9814BE37C969F01FD010995DF91D8
:1039A000CF910F91EF900895DF93CF930F92CDB702
:1039B000DEB7FB01A081B18146E49E012F5F3F4F3E
:1039C000FD01099589810F90CF91DF910895DF93D3
:1039D000CF930F92CDB7DEB7FB01A081B18147E451
:1039E0009E012F5F3F4FFD01099589810F90CF9177
:1039F000DF910895FB01A081B18148E420E030E02F
:103A0000FD01099508950F931F938C01DC01129617
:103A10006D917C9113970E94D41CF8018083628180
:103A20007381C8010E94E71CD80111968C931197ED
:103A300012966D917C911397C8010E94FA1CF801AF
:103A400083870280F381E02DA081B181C801BF018D
:103A500047E10D5C1F4F9801FD0109951F910F91E2
:103A60000895CF93DF93EC016A817B810E94301C23
:103A7000882321F0CE010E94031D81E0DF91CF91C8
:103A80000895FC01628173810E945B1C0895CF93AD
:103A9000DF93EC01EE85FF85309709F009956A8187
:103AA0007B81CE010E948E1CDF91CF910895EF9211
:103AB0000F93FC01362F542FA22FE02E62817381C9
:103AC000432F252F0A2F0E94BE1C0F91EF900895BF
:103AD0001F93CF93DF93EC011D821C821F821E82F5
:103AE000198681E0888782E28A871F861E86FE010A
:103AF000B39680E09FEF91938F5F8E30E1F711E0F6
:103B000018A3CE010E94681B1F8B188E198E80E4AB
:103B10008A8F1B8E8FEC9EE19AAB89ABDF91CF91A0
:103B20001F9108958F929F92AF92BF92CF92EF9282
:103B3000FF920F931F935C014B01142FF22E0E94F2
:103B4000681DF5019382828217A3F0A605A3E4A263
:103B5000C3A2C5010E94311D1F910F91FF90EF90EC
:103B6000CF90BF90AF909F908F900895FC011282EC
:103B700080818150838314820895FC012081828199
:103B8000820F82839181891710F080E008958481EB
:103B90008F5F84838381820F891710F0892F815072
:103BA000838381E00895FC01A681B78185819D0111
:103BB000280F311DC9011D92A817B907E1F7089513
:103BC000DC01FB01108212968C911297818315966D
:103BD0008C9115978150828313968C9183830895DD
:103BE000DC01FB0121818381813021F0833029F0C8
:103BF000322F05C0322F385F02C0322F285040E0EC
:103C000013968C911397821708F041E050E01296BA
:103C10008C91381708F051E090E0321708F491E0E9
:103C2000892F8423942B9523892B0895FC01A68149
:103C3000B78185818695869586959281491B489F97
:103C4000402D1124A40FB11D362F377080E890E06D
:103C500002C0959587953A95E2F7669566956695C3
:103C6000A60FB11D3C91222311F0382B02C0809584
:103C700038233C930895FC01DB0111964C91119778
:103C80008281481760F08381841748F06C918581A8
:103C9000681728F4CF0114962C910E94161E0895DF
:103CA000CF92DF92FF920F931F93CF93DF936C011C
:103CB000EB01FA808B81813061F0813028F0823015
:103CC00059F0833019F40AC001E001C000E010E0AF
:103CD00007C000E011E004C00FEFF9CF00E01FEFD4
:103CE000F7FE04C0C601BE010E943B1E8881800F02
:103CF00088838981810F8983FF0C91F7DF91CF91B0
:103D00001F910F91FF90DF90CF9008950F931F9315
:103D1000CF93DF93FB018901C281D3814233D1F07C
:103D2000433338F4453111F1473149F1443189F5D4
:103D300016C0463449F1473449F14B3351F5CE01B1
:103D4000B9010E94F01D882321F1CE01B8010E9423
:103D5000501E1FC0CE01B9010E943B1E1AC0CE01E9
:103D60000E94D31DCE010E94B61D13C0CE010E9439
:103D7000BD1D882379F0CE010E94D31D0AC0CE015B
:103D8000B9010E94E01D05C08D8101C08981F80143
:103D9000808381E0DF91CF911F910F910895089565
:103DA000CF92EF920F93FC0113AE14AE15AE0496B2
:103DB0000E94921D0F91EF90CF9008958F929F9245
:103DC000AF92BF92CF92DF92EF92FF920F931F9329
:103DD000CF93DF937B018C01EA012CE330E040E0DC
:103DE00050E00E9466346883C801B7012CE330E0DC
:103DF00040E050E00E946634122F032FF42EE52E8F
:103E0000622F732F842F952F2CE330E040E050E099
:103E10000E9466346983612F702F8F2D9E2D2CE3B5
:103E200030E040E050E00E946634122F032FF42E61
:103E3000E52E622F732F842F952F28E130E040E08C
:103E400050E00E9466346A83612F702F8F2D9E2D63
:103E500028E130E040E050E00E94663479018A01B8
:103E6000C801B7016C5F7F4F8F4F9F4F27E030E055
:103E700040E050E00E9466346F5F6B8320E0AA242C
:103E8000BB24650101C02F5F822E9924F401EE54FA
:103E9000F84FCF0183709070892B99F4CF0164E6BD
:103EA00070E00E945334892B39F4CF0160E971E04E
:103EB0000E945334892B29F48EE691E0A0E0B0E013
:103EC00004C08DE691E0A0E0B0E0A80EB91ECA1EC5
:103ED000DB1EC501A0E0B0E0E816F9060A071B07E3
:103EE00090F62E83F401EE54F84F83E0882E912C47
:103EF0008E229F228114910499F4CF0164E670E030
:103F00000E945334892B39F4CF0160E971E00E949B
:103F10005334892B29F48EE691E0A0E0B0E004C090
:103F20008DE691E0A0E0B0E0A81AB90ACA0ADB0A5F
:103F3000980187010A191B092C093D09CF0164E684
:103F400070E00E9453347C01CF0160E971E00E946F
:103F50005334AC01EDE2F2E060E0613051F48114E1
:103F6000910449F4E114F10441F44115510529F09B
:103F700002C0808103C08CE101C08DE190E0A0E02F
:103F8000B0E0081719072A073B0740F0081B190B78
:103F90002A0B3B0B6F5F31966C30F9F66F5F6D83C8
:103FA000802F8F5F8C83DF91CF911F910F91FF90B6
:103FB000EF90DF90CF90BF90AF909F908F9008953B
:103FC000EF92FF920F931F937B018C018091180455
:103FD00090911904A0911A04B0911B04E816F906F7
:103FE0000A071B0771F0C801B7014DE054E00E94B9
:103FF000DE1EE0921804F092190400931A04109344
:104000001B041F910F91FF90EF9008954F925F92C4
:104010006F927F928F929F92AF92BF92CF92DF92D8
:10402000EF92FF920F931F93CF93DF934C01DC012C
:1040300016961C91612F70E080E090E020E833E359
:1040400041EE51E00E9414345B016C0122EB37E039
:10405000E12FF0E0EE54F84F1DC0C901837090705D
:10406000892BB1F4C90164E670E00E945334892BB6
:1040700039F4C90160E971E00E945334892B41F49D
:1040800080E891E5A1E0B0E0A80EB91ECA1EDB1ED3
:104090002F5F3F4F2E173F0701F7D40115968C91E4
:1040A000482E5524C90164E670E00E9453347C0117
:1040B000C90160E971E00E9453348C01C1E0D0E095
:1040C00093E0692E712C6222732227C0C230D10581
:1040D00091F46114710479F4E114F10419F40115F7
:1040E000110549F480E89BE3A6E2B0E0A80EB91EF2
:1040F000CA1EDB1E11C0FE01E45DFD4F608170E051
:1041000080E090E020E831E541E050E00E94143486
:10411000A60EB71EC81ED91E2196C415D505B4F229
:10412000D40112966C9170E080E090E020E13EE0D6
:1041300040E050E00E9414347B018C01F401618165
:1041400070E080E090E02CE330E040E050E00E943E
:104150001434E60EF71E081F191FD4018C91E80EC7
:10416000F11C011D111D14966C9170E0615070409E
:10417000882777FD8095982F20E831E541E050E0D1
:104180000E941434E60EF71E081F191FEA0CFB1CD0
:104190000C1D1D1DB701C801DF91CF911F910F911B
:1041A000FF90EF90DF90CF90BF90AF909F908F9057
:1041B0007F906F905F904F90089580910B04909145
:1041C0000C04089560930304709304048093050421
:1041D000909306042091040230910502409106025A
:1041E00050910702260F371F481F591F20930704BD
:1041F000309308044093090450930A0482E090E04D
:1042000090930C0480930B040E94FE2F609314047F
:104210007093150480931604909317040895EF92F9
:10422000FF920F931F931CC02F5F3F4F4F4F5F4F65
:104230002093030430930404409305045093060430
:1042400088EE93E0A0E0B0E0E80EF91E0A1F1B1F05
:10425000E0921404F09215040093160410931704CE
:104260000E94FE2FE0901404F090150400911604B3
:10427000109117046E197F09800B910B2091030494
:10428000309104044091050450910604685E734027
:104290008040904048F68091070490910804A091D6
:1042A0000904B0910A04281739074A075B07E8F0A8
:1042B000E0910104F09102043097B9F0099561157D
:1042C00071058105910519F00E94E2200EC020E0E1
:1042D00030E080910B0490910C04892B11F021E0C7
:1042E00030E030930C0420930B0460910304709130
:1042F000040480910504909106041F910F91FF9092
:10430000EF90089590930204809301048091030438
:1043100090910404A0910504B091060480930704D1
:1043200090930804A0930904B0930A040E940F21FB
:1043300008950E940F210E94E01F80910D0490E0DB
:1043400008950E940F210E94E01F80910E0490E0CA
:1043500008950E940F210E94E01F80910F0490E0B9
:104360000895FF920F931F93CF93DF938B010E94C9
:10437000FE2FEB01FF24FA94FEBC0DB407FEFDCF27
:104380008EB58F3F11F481E008C00E94FE2F6C1B98
:104390007D0B6017710780F380E0DF91CF911F9153
:1043A0000F91FF900895FC01848160E00E94A0318C
:1043B0000895FC01848161E00E94A0310895DC0130
:1043C0006EBD0DB407FEFDCF8EB520E030E0FA01E2
:1043D000E20FF31F80818EBD0DB407FEFDCF8EB5B9
:1043E0002F5F3F4F82E02030380789F78FEF8EBD77
:1043F0000DB407FEFDCF8EB58FEF8EBD0DB407FE59
:10440000FDCF8EB58FEF8EBD0DB407FEFDCF8EB5FF
:104410001A968C931A978F71853011F481E0089564
:1044200081E115968C931597CD010E94D92180E0EA
:104430000895FF920F931F93CF93DF93EC010E9497
:10444000FE2F8B01FF24FA9409C00E94FE2F601BEF
:10445000710B6D52714010F08FE00DC0FEBC0DB4B9
:1044600007FEFDCF8EB58A878F3F79F38E3F11F41B
:1044700081E006C08DE08D83CE010E94D92180E0CD
:10448000DF91CF911F910F91FF900895CF93DF930C
:10449000EC018E818823B1F02F8138854FEF05C064
:1044A0004EBD0DB407FEFDCF8EB52F5F3F4FC90146
:1044B000019782509240A0F338872F83CE010E944B
:1044C000D9211E82DF91CF910895DF92EF92FF9262
:1044D0000F931F93CF93DF93EC01D62E79018A01BE
:1044E0000E944622CE010E94D321CE016CE271E0EF
:1044F0000E94B1218D2D80648EBD0DB407FEFDCFCD
:104500008EB528E130E0D801C701022E04C0B6956F
:10451000A795979587950A94D2F78EBD0DB407FE9F
:10452000FDCF8EB5285030408FEF283F380759F720
:10453000DD2011F485E906C088E0D81611F487E87B
:1045400001C08FEF8EBD0DB407FEFDCF8EB590E09C
:104550002FEF2EBD0DB407FEFDCF8EB587FF02C035
:104560009150B9F78A87DF91CF911F910F91FF90FA
:10457000EF90DF900895CF92DF92EF92FF920F932A
:104580001F93CF93DF93EC017A018B0169014115F1
:1045900051056105710511F482E137C08B858330C7
:1045A00039F099E0EE0CFF1C001F111F9A95D1F70E
:1045B000CE0168E1A80197010E946522882311F0CD
:1045C00084E023C0CE016EEFA6010E94DF21882384
:1045D000E9F0CE0168E572E00E94B121882311F470
:1045E00085E113C0CE016DE020E030E040E050E016
:1045F0000E946522882341F48FEF8EBD0DB407FE23
:10460000FDCF8EB5882379F084E18D83CE010E94A1
:10461000D92180E0DF91CF911F910F91FF90EF9012
:10462000DF90CF900895CE010E94D92181E0F2CF92
:104630008F929F92AF92BF92CF92DF92EF92FF92B2
:104640000F931F93CF93DF93EC015A016B01490144
:104650000115110509F470C0C801820F931F815024
:10466000924008F064C08E81882371F0888199811E
:10467000AA81BB81481759076A077B0729F48F81F4
:1046800098858816990610F5A882B982CA82DB82BD
:104690008B85833039F059E0AA0CBB1CCC1CDD1C87
:1046A0005A95D1F7CE0161E1A60195010E946522DC
:1046B000882319F083E08D833AC0CE010E9419222D
:1046C0008823A9F118861F8281E08E838F819885C7
:1046D0002FEF06C02EBD0DB407FEFDCF3EB50196EF
:1046E00088159905B8F398878F8320E030E09FEF15
:1046F0000BC09EBD0DB407FEFDCF8EB5F701E20FD6
:10470000F31F80832F5F3F4F2017310790F32F81D6
:104710003885200F311F38872F838985882319F02A
:104720002050324048F0CE010E94462205C0CE0102
:104730000E94D92180E001C081E0DF91CF911F91DB
:104740000F91FF90EF90DF90CF90BF90AF909F9030
:104750008F900895EF92FF920F931F93790120E0BD
:1047600030E000E012E00E9418231F910F91FF90AB
:10477000EF9008956F927F928F929F92AF92BF9227
:10478000CF92DF92EF92FF920F931F93CF93DF931D
:10479000EC017A018B012D81222309F480C08B89E1
:1047A0009C89AD89BE8984179507A607B70708F4C9
:1047B00076C085C0E114F1040105110549F41E829B
:1047C0001F82188619861A861B861C861D8665C060
:1047D0002A853B854C855D85EB8DFC8D858590E03C
:1047E0000996215030404040504039014A01082E7E
:1047F00004C096948794779467940A94D2F72F5FB5
:104800003F4F4F4F5F4F0894E108F108010911092C
:104810005701680104C0D694C794B794A7948A95A9
:10482000D2F70894E11CF11C011D111DA614B70458
:10483000C804D90428F0211531054105510549F472
:104840008F89988DA98DBA8D8E839F83A887B9870C
:1048500016C0A618B708C808D90811C04E815F81D4
:10486000688579858B8D9C8D94010E94CC27089456
:10487000A108B108C108D108882331F410C086E02E
:10488000882E912C8C0E9D1EA114B104C104D1045C
:1048900029F7EA86FB860C871D8781E001C080E04E
:1048A000DF91CF911F910F91FF90EF90DF90CF900C
:1048B000BF90AF909F908F907F906F90089522301F
:1048C00009F078CFE6CFCF93DF93EC01462F6E85CA
:1048D0007F85888999890E94F526882319F420E02C
:1048E00030E00AC08A89282F30E095E0220F331F7C
:1048F0009A95E1F7225E3B4FC901DF91CF91089570
:104900000F931F93CF93DF938C01FC018581882344
:10491000D9F1848187FF35C0C80161E00E9463241A
:10492000EC01009789F1F8018581823040F4838998
:104930009489A589B6898C8F9D8FAE8FBF8FF80122
:104940008789908D9B8F8A8F8789908DA18DB28D5D
:10495000CD01AA27BB279D8B8C8BE0911C04F09185
:104960001D04309751F0BE016A5E7F4FCE0148961C
:104970000995888D998D9B8B8A8BF80184818F771F
:1049800084830E94BA2601C080E0DF91CF911F91FD
:104990000F910895CF93DF93EC019C012A5F3F4F65
:1049A0008B8D9C8D41E050E060E070E00E943F28DC
:1049B0008823A1F08F89988DA98DBA8D0097A105C4
:1049C000B10559F48E819F81A885B9858F8B988F09
:1049D000A98FBA8F8C8180688C8381E0DF91CF9121
:1049E00008952F923F924F925F927F928F929F9263
:1049F000AF92BF92CF92DF92EF92FF920F931F93ED
:104A0000DF93CF9300D000D000D0CDB7DEB76C01DC
:104A1000162F072F5E834D83DC0115968C91159719
:104A2000813009F070C114968C9181FF6CC18EC1E8
:104A3000F601438954896589768982859385A485A1
:104A4000B58584179507A607B70731F0C6010E9400
:104A5000BA23882309F457C1812F902F9C01290183
:104A60002D803E8017C1D6015B96ED91FC915C973D
:104A7000DA01C90119E0B695A795979587951A951A
:104A8000D1F774807A9478227FEF872E71E0972E89
:104A900082229322772009F04EC08114910409F0FC
:104AA0004AC0D60116964D915D916D917C911997F2
:104AB000411551056105710581F457968D919D91C0
:104AC0000D90BC91A02D0097A105B10549F1F6010B
:104AD00086839783A087B1872EC0CF019E012F5F69
:104AE0003F4F0E94CC27882309F414C129813A81C1
:104AF0004B815C81D6015B96ED91FC915C97878937
:104B0000803129F088EF9FEFAFEFBFE004C088EF5E
:104B10009FEFA0E0B0E0281739074A075B0730F0A5
:104B2000C6010E94CA24882331F4EDC0F601268311
:104B300037834087518780E092E0881999095101B5
:104B40008215930508F45C01D6015B96ED91FC910A
:104B50005C971696ED90FD900D911C9119978EEF34
:104B60009FEFAFEFBFEFE80EF91E0A1F1B1F058472
:104B700004C0EE0CFF1C001F111F0A94D2F786859B
:104B80009785A089B189E80EF91E0A1F1B1FE70C43
:104B9000F11C011D111D90E0A91692E0B90651F516
:104BA0008091080290910902A0910A02B0910B0233
:104BB0008E159F05A007B10761F48FEF9FEFAFEF50
:104BC000BFEF8093080290930902A0930A02B0936A
:104BD0000B0280911E0690911F06B801A701920159
:104BE0000E94BB22882309F48EC0A0E0B2E04A0EE6
:104BF0005B1E3EC08114910409F5F60122853385C0
:104C00004485558583899489A589B68928173907EC
:104C10004A075B0798F00E94BA26882309F473C0FC
:104C2000E0920802F092090200930A0210930B022C
:104C30008091200681608093200608C0C801B701DA
:104C400041E00E94F526882309F45DC09401225EAC
:104C50003B4FA9014A0D5B1DD201F90102C08D91A4
:104C60008193E417F507D9F7E21BF30B4E0E5F1E95
:104C70002A183B08950140E050E0F60182859385B3
:104C8000A485B585820F931FA41FB51F82879387C4
:104C9000A487B587D6011A962D913D914D915C91CF
:104CA0001D972114310409F0DECE53968D919D910C
:104CB0000D90BC91A02D82179307A407B50748F467
:104CC000F601238B348B458B568B848180688483DB
:104CD00011C080911C0490911D04892B59F08D8185
:104CE0009E81892B39F0D60114968C911497806897
:104CF00014968C93F601848183FF0EC0C6010E9436
:104D00008024882349F481E090E0D60113969C9397
:104D10008E9312971E821D828D819E8126960FB6DC
:104D2000F894DEBF0FBECDBFCF91DF911F910F91E1
:104D3000FF90EF90DF90CF90BF90AF909F908F90BB
:104D40007F905F904F903F902F90089582FD70CE9E
:104D500083CEDF93CF930F92CDB7DEB76983BE01C9
:104D60006F5F7F4F41E050E00E94F1240F90CF91A0
:104D7000DF91089580912006882399F140910802DF
:104D80005091090260910A0270910B0280911E06F7
:104D900090911F062EE134E00E94BB22882319F176
:104DA00040912106509122066091230670912406BD
:104DB000411551056105710591F080911E06909194
:104DC0001F062EE134E00E94BB22882361F010927E
:104DD00021061092220610922306109224061092A9
:104DE000200681E0089580E00895DF92EF92FF921F
:104DF0000F931F937B018C01D42E80910802909118
:104E00000902A0910A02B0910B028E159F05A0071E
:104E1000B107C1F00E94BA268823D9F080911E06FE
:104E200090911F06B801A7012EE134E00E94AA2349
:104E3000882379F0E0920802F092090200930A02B6
:104E400010930B02809120068D298093200681E02B
:104E500001C080E01F910F91FF90EF90DF900895C7
:104E60004F925F926F927F928F929F92AF92BF927A
:104E7000CF92DF92EF92FF920F931F93CF93DF9326
:104E8000EC016A017B0128013901423051056105BD
:104E9000710508F46FC089859A85AB85BC8501963C
:104EA000A11DB11D84179507A607B70708F462C0B6
:104EB0002B893C894D895E898F89803129F4992716
:104EC0008F2D7E2D6D2D09C0C701B60117E0969577
:104ED0008795779567951A95D1F74B015C01820EFE
:104EE000931EA41EB51E8091080290910902A09104
:104EF0000A02B0910B0288169906AA06BB0639F081
:104F0000C501B40140E00E94F526882399F18F89FC
:104F1000803149F4F601F070EE0FFF1FE25EFB4FA7
:104F2000518240820DC0F601EF77F070EE0FFF1F47
:104F3000EE0FFF1FE25EFB4F40825182628273825E
:104F4000809120068160809320068A89823080F0DB
:104F50008D819E81AF81B885880E991EAA1EBB1EC9
:104F60008092210690922206A0922306B0922406F7
:104F700081E001C080E0DF91CF911F910F91FF9000
:104F8000EF90DF90CF90BF90AF909F908F907F90E9
:104F90006F905F904F900895CF92DF92EF92FF92C3
:104FA0000F931F93CF93DF93EC017A018B0169017B
:104FB00089859A85AB85BC850196A11DB11D841795
:104FC0009507A607B70708F450C02B893C894D897F
:104FD0005E898F89803129F49927812F702F6F2D59
:104FE00009C0C801B701E7E0969587957795679561
:104FF000EA95D1F7260F371F481F591F80910802E5
:1050000090910902A0910A02B0910B02281739076A
:105010004A075B0739F0CA01B90140E00E94F52652
:10502000882319F18F89803159F4F701F070EE0F60
:10503000FF1FE25EFB4F80819181A0E0B0E00EC0D7
:10504000F701EF77F070EE0FFF1FEE0FFF1FE25E2C
:10505000FB4F80819181A281B381BF70F601808373
:105060009183A283B38381E001C080E0DF91CF917F
:105070001F910F91FF90EF90DF90CF9008952F92A6
:105080003F924F925F926F927F928F929F92AF92D8
:10509000BF92CF92DF92EF92FF920F931F93DF9315
:1050A000CF93CDB7DEB72F970FB6F894DEBF0FBE04
:1050B000CDBF1C014A875B876C877D873F872E8722
:1050C000D9010D911D912D913C91011511052105DD
:1050D000310549F0480159010894811C911CA11C1B
:1050E000B11C198610C0FC0180809180A280B38021
:1050F00019868A859B85AC85BD850197A105B1057B
:1051000011F491E09987D10119968D919D910D909F
:10511000BC91A02D0196A11DB11D8D839E83AF83EF
:10512000B887750164014424552432018E010F5F54
:105130001F4FF10181859285A385B48548165906D4
:105140006A067B0608F090C08D819E81AF81B8858C
:105150008C159D05AE05BF0550F482E0882E912C7C
:10516000A12CB12CB2E0CB2ED12CE12CF12CC10121
:10517000B701A60198010E94CC27882309F474C0C6
:1051800089819A81AB81BC81A70196012F5F3F4F36
:105190004F4F5F4F0097A105B10519F049015A0122
:1051A0000DC0281939094A095B098A859B85AC8598
:1051B000BD85281739074A075B0759F00894411C39
:1051C000511C611C711C0894C11CD11CE11CF11CF8
:1051D000B0CFC101A601B7010FEF1FEF2FEF3FE0E6
:1051E0000E943027882399F43FC026013701089494
:1051F0004108510861087108C101B301A20197017A
:1052000086010E943027882379F1730162018C1492
:105210009D04AE04BF0448F3AE85BF854D915D91FA
:105220006D917C91411551056105710539F0C10100
:10523000950184010E9430278823B1F0EE85FF8517
:1052400080829182A282B382F985FF2359F008946B
:10525000811C911CA11CB11CD1018D929D92AD921B
:10526000BC92139781E001C080E02F960FB6F894AE
:10527000DEBF0FBECDBFCF91DF911F910F91FF9089
:10528000EF90DF90CF90BF90AF909F908F907F90E6
:105290006F905F904F903F902F90089510922A0644
:1052A00010922B0610922E061092300682E090E0AB
:1052B000A0E0B0E08093310690933206A0933306CD
:1052C000B09334061092480610925206109251067E
:1052D0008DE392E09093500680934F06109254060F
:1052E0000895482F6AE00E943334282F30E084E08C
:1052F000220F331F8A95E1F7842F0E943334892FC0
:10530000820F0895EF92FF920F931F937C010DE699
:1053100013E0C80168E670E00E949D16C80160E0D5
:105320000E941F17F70180810E947129682FC80110
:105330000E941F17F70181810E947129682FC801FF
:105340000E941F17F70182810E947129682FC801EE
:105350000E941F17F70183810E947129682FC801DD
:105360000E941F17F70184810E947129682FC801CC
:105370000E941F17F70185810E947129682FC801BB
:105380000E941F17F70186818E510E947129682F94
:10539000C8010E941F17C8010E9462171F910F9138
:1053A000FF90EF900895DF92EF92FF920F931F937B
:1053B0007C010DE613E0C80168E670E00E949D16CE
:1053C000C80160E00E941F17C8010E946217C8014F
:1053D00068E670E047E050E00E947317C8010E9441
:1053E000B016282F2F7722952F709AE0D92E2D9D59
:1053F000900111248F70820FF7018083C8010E94F1
:10540000B016282F22952F702D9D900111248F709A
:10541000820FF7018183C8010E94B016282F2F73D5
:1054200022952F702D9D900111248F70820FF7010E
:105430008283C8010E94B016282F22952F702D9DBF
:10544000900111248F70820FF7018383C8010E949D
:10545000B016282F22952F702D9D900111248F704A
:10546000820FF7018483C8010E94B016282F22956D
:105470002F702D9D900111248F70820FF70185836D
:10548000C8010E94B016282F2F70225E82958F705F
:105490008D9DC0011124280FF70126831F910F91C4
:1054A000FF90EF90DF9008950F931F93DF93CF93BA
:1054B000CDB7DEB727970FB6F894DEBF0FBECDBFCE
:1054C0008E010F5F1F4FA8010E94DE1E8981806838
:1054D0008983C8010E94822989818F778983C801C5
:1054E0000E94822927960FB6F894DEBF0FBECDBF6B
:1054F000CF91DF911F910F9108950F931F93DF9329
:10550000CF93CDB7DEB727970FB6F894DEBF0FBEA7
:10551000CDBF8E010F5F1F4FC8010E94D329C80164
:105520000E94062027960FB6F894DEBF0FBECDBFAF
:10553000CF91DF911F910F9108958DE693E00E9426
:105540007717089508951F920F920FB60F921124A6
:105550002F933F934F938F939F93EF93FF9380915C
:10556000C00082FD1DC04091C6002091AE06309162
:10557000AF062F5F3F4F2F7330708091B006909130
:10558000B1062817390771F0E091AE06F091AF0629
:10559000E259F94F40833093AF062093AE0602C024
:1055A0008091C600FF91EF919F918F914F913F9114
:1055B0002F910F900FBE0F901F901895E09102074A
:1055C000F0910307E05CFF4F81919191208131813F
:1055D000821B930B8F739070892B11F00E94A22A6B
:1055E00008951F920F920FB60F9211242F933F939D
:1055F0008F939F93EF93FF932091F2063091F306E0
:105600008091F4069091F5062817390731F48091BE
:10561000C1008F7D8093C10014C0E091F406F09129
:10562000F506EE54F94F20818091F4069091F5062D
:1056300001968F7390709093F5068093F4062093F3
:10564000C600FF91EF919F918F913F912F910F9005
:105650000FBE0F901F901895AF92BF92DF92EF92FE
:10566000FF920F931F93CF93DF93EC017A018B018D
:10567000DD24403081EE580780E0680780E078073D
:1056800011F0DD24D39491E0A92EB12CEC89FD8991
:10569000DD2069F0C50108A002C0880F991F0A9497
:1056A000E2F7808360E079E08DE390E005C010824E
:1056B00060E874E88EE190E0A80197010E946634EA
:1056C000215030404040504056954795379527959A
:1056D00080E12030380720F0DD2011F0DD24D6CF26
:1056E000E889F9893083EA89FB89208319A2EE8948
:1056F000FF89408121E030E0C9010C8C02C0880F95
:10570000991F0A94E2F7482B4083EE89FF89408174
:10571000C9010D8C02C0880F991F0A94E2F7482B2B
:105720004083EE89FF894081C9010E8C02C0880F39
:10573000991F0A94E2F7482B4083EE89FF89808104
:105740000F8C02C0220F331F0A94E2F72095282302
:105750002083DF91CF911F910F91FF90EF90DF9009
:10576000BF90AF900895DC011C96ED91FC911D97C0
:10577000E05CFF4F2191319180819181281B390B91
:105780002F733070C9010895DC011C96ED91FC91D6
:105790001D97E05CFF4F20813181E054F040DF0134
:1057A000AE5BBF4F8D919C9111972817390719F463
:1057B0002FEF3FEF07C08D919C91E80FF91F80817B
:1057C000282F30E0C9010895DC011C96ED91FC9171
:1057D0001D97E05CFF4F20813181E054F040DF01F4
:1057E000AE5BBF4F8D919C9111972817390719F423
:1057F0002FEF3FEF10C08D919C911197E80FF91F8B
:1058000020818D919C91119701968F7390701196C4
:105810009C938E9330E0C9010895DC0191968C91A0
:105820009197882339F05496ED91FC91559780819A
:1058300086FFF9CF91961C920895CF93DF93EC01E8
:10584000EE85FF85E05CFF4F20813181E054F04020
:105850002F5F3F4F2F733070DF01AE5BBF4F8D91D5
:105860009C91119728173907D1F3E05CFF4F808195
:105870009181E054F040E80FF91F6083EE85FF85C9
:10588000E05CFF4F31832083EE89FF89208181E036
:1058900090E00F8C02C0880F991F0A94E2F7282B22
:1058A000208381E089A3EC89FD89808180648083E5
:1058B00081E090E0DF91CF9108951092F906109267
:1058C000F80688EE93E0A0E0B0E08093FA069093AB
:1058D000FB06A093FC06B093FD0685E492E090934E
:1058E000F7068093F6068EE696E090930307809382
:1058F000020782EB96E0909305078093040785ECFE
:1059000090E0909307078093060784EC90E09093D3
:1059100009078093080780EC90E090930B07809331
:105920000A0781EC90E090930D0780930C0782ECBE
:1059300090E090930F0780930E0786EC90E0909391
:1059400011078093100784E08093120783E080930F
:10595000130787E08093140785E08093150781E0A3
:10596000809316070895CF92DF92EF92FF920F93E4
:105970001F93CF93DF937C016B018A01C0E0D0E0DD
:105980000FC0D6016D916D01D701ED91FC91019091
:10599000F081E02DC7010995C80FD91F01501040B3
:1059A0000115110571F7CE01DF91CF911F910F9174
:1059B000FF90EF90DF90CF900895DC01ED91FC9186
:1059C0000190F081E02D09950895EF92FF920F93D9
:1059D0001F938C01DC01ED91FC910190F081E02D91
:1059E0006DE009957C01D801ED91FC910190F08169
:1059F000E02DC8016AE009959C012E0D3F1DC901EB
:105A00001F910F91FF90EF900895CF93DF93EC01DA
:105A10006115710519F420E030E00FC0DB010D9035
:105A20000020E9F71197A61BB70BE881F9810280E6
:105A3000F381E02DAD0109959C01C901DF91CF9162
:105A400008954F925F927F928F929F92AF92BF92F2
:105A5000CF92DF92EF92FF920F931F93DF93CF933A
:105A6000CDB7DEB7A1970FB6F894DEBF0FBECDBF9E
:105A70002C01742ECB01223008F42AE019A231E265
:105A8000C32ED12CCC0EDD1E822E9924AA24BB2439
:105A9000672D752FA50194010E94663479018A0152
:105AA000C801B701A50194010E941434472D461B7B
:105AB0000894C108D1084A3014F4405D01C0495C23
:105AC000F6014083E114F1040105110521F07E2C5B
:105AD0005F2DC801DDCFC201B6010E94052DA19640
